:1000000000000320D5010000550200000F4E000043
:10001000590200005B0200005D02000000000000C9
:100020000000000000000000000000005F0200006F
:100030006102000000000000630200006502000091
:10004000494400005144000059440000614400004C
:1000500069440000714400007944000081440000BC
:10006000894400009144000099440000A14400002C
:10007000A9440000B1440000B9440000C14400009C
:10008000C9440000D1440000D9440000E14400000C
:10009000E9440000F1440000F9440000014500007B
:1000A00009450000114500001945000021450000E8
:1000B0002945000031450000394500004145000058
:1000C00049450000514500005945000061450000C8
:1000D000694500000D2400007145000079450000CD
:1000E000814500008945000091450000B1040000F1
:1000F00099450000A1450000A9450000B145000058
:10010000111B0000B91B0000711C0000291D00001C
:10011000B9450000C1450000C9450000D1450000B7
:10012000D9450000E1450000E9450000F145000027
:10013000050A0000F9450000390A000001460000E8
:1001400009460000114600006D2400001946000019
:1001500021460000294600003146000039460000D3
:100160004146000049460000514600005946000043
:1001700061460000694600007146000079460000B3
:100180008146000089460000914600009946000023
:10019000A1460000A94600007054000000000020A5
:1001A00070000000705400000000FF1F00000000FD
:1001B00070540000000000140000000070000020D7
:1001C000E00100000000FF1F00000000000000141C
:1001D0000000000072B602F099FD0F4B0F4A9342E7
:1001E00008D203F10C049A685968186800F01AF8EC
:1001F0002346F3E70A4A934207D21C46596854F84B
:10020000080B00F01EF82346F4E703F0F5F962B698
:1002100004F0B3FCFEE700BF98010000BC01000041
:10022000D4010000002393420AD210B450F8044BCA
:1002300041F8044B04339342F8D35DF8044B704704
:100240007047002303E0002240F8042B04338B4264
:10025000F9D37047FEE7FEE7FEE7FEE7FEE7FEE7BD
:10026000FEE7FEE7FEE7FEE7FFFFFFFFFFFFFFFF02
:10027000FFFFFFFFFFFFFFFFFFFFFFFFFFFFFFFF8E
:10028000FFFFFFFFFFFFFFFFFFFFFFFFFFFFFFFF7E
:10029000FFFFFFFFFFFFFFFFFFFFFFFFFFFFFFFF6E
:1002A000FFFFFFFFFFFFFFFFFFFFFFFFFFFFFFFF5E
:1002B000FFFFFFFFFFFFFFFFFFFFFFFFFFFFFFFF4E
:1002C000FFFFFFFFFFFFFFFFFFFFFFFFFFFFFFFF3E
:1002D000FFFFFFFFFFFFFFFFFFFFFFFFFFFFFFFF2E
:1002E000FFFFFFFFFFFFFFFFFFFFFFFFFFFFFFFF1E
:1002F000FFFFFFFFFFFFFFFFFFFFFFFFFFFFFFFF0E
:10030000FFFFFFFFFFFFFFFFFFFFFFFFFFFFFFFFFD
:10031000FFFFFFFFFFFFFFFFFFFFFFFFFFFFFFFFED
:10032000FFFFFFFFFFFFFFFFFFFFFFFFFFFFFFFFDD
:10033000FFFFFFFFFFFFFFFFFFFFFFFFFFFFFFFFCD
:10034000FFFFFFFFFFFFFFFFFFFFFFFFFFFFFFFFBD
:10035000FFFFFFFFFFFFFFFFFFFFFFFFFFFFFFFFAD
:10036000FFFFFFFFFFFFFFFFFFFFFFFFFFFFFFFF9D
:10037000FFFFFFFFFFFFFFFFFFFFFFFFFFFFFFFF8D
:10038000FFFFFFFFFFFFFFFFFFFFFFFFFFFFFFFF7D
:10039000FFFFFFFFFFFFFFFFFFFFFFFFFFFFFFFF6D
:1003A000FFFFFFFFFFFFFFFFFFFFFFFFFFFFFFFF5D
:1003B000FFFFFFFFFFFFFFFFFFFFFFFFFFFFFFFF4D
:1003C000FFFFFFFFFFFFFFFFFFFFFFFFFFFFFFFF3D
:1003D000FFFFFFFFFFFFFFFFFFFFFFFFFFFFFFFF2D
:1003E000FFFFFFFFFFFFFFFFFFFFFFFFFFFFFFFF1D
:1003F000FFFFFFFFFFFFFFFFFFFFFFFFFFFFFFFF0D
:10040000FFFFFFFFFFFFFFFFFFFFFFFFFEFFFFFFFD
:1004100001F0FF01102A2BDB10F0070F08D010F8B5
:10042000013B013A8B422DD010F0070F42B3F6D1B9
:10043000F0B441EA012141EA014122F007047FF0D2
:1004400000070023F0E80256083C85EA010586EA29
:10045000010685FA47F5A3FA87F586FA47F6A5FA65
:1004600087F68EB9EED1F0BC01F0FF0102F0070271
:1004700032B110F8013B013A83EA010313B1F8D11C
:100480000020704701387047002D06BF35460338FD
:10049000073815F0010F07D1013015F4807F02BF36
:1004A000013015F4C03F0130F0BC0138704700BF87
:1004B000B0B582B000AF944B4FF4FA62C3F830216C
:1004C000924B1B6803F08003802B0FD18F4B1B686E
:1004D0008E4A23F0800313608D4B1B6801338C4AD6
:1004E00013608C4B1B6801338A4A1360874BDB68AF
:1004F00003F08003802B7CD1844BDB68834A23F09C
:100500008003D360814B1B697B60814B1B68002B90
:100510002FD07F4B1B68184602F058FD78A3D3E913
:10052000002302F0CDFD02460B4614461D467A4BD1
:100530001B88184602F05AFD02460B462046294603
:1005400002F006FC02460B4614461D46786802F08F
:100550003DFD02460B462046294602F0FBFB0246C3
:100560000B461046194602F0DDFF03466B4A136046
:100570000BE0694B1B881A467B689B1A07EE903A82
:10058000F8EE677A654BC3ED007A644BD3ED007AE1
:10059000F5EEC07AF1EE10FA12DD604BD3ED007A81
:1005A000DFED5F6A86EEA77AF1EE006AC7EE267A83
:1005B0009FED5C7A67EE877A5B4BC3ED007A03E0D0
:1005C000594B4FF000021A60584B1B6903F020038F
:1005D000002B07D1544BD3ED007AF1EE677A524BE2
:1005E000C3ED007A7B689AB24B4B1A80484B0022CD
:1005F0001A60464B5B6903F08003802B7CD1434B30
:100600005B69424A23F080035361404B9B697B60E6
:10061000404B1B68002B2FD03E4B1B68184602F046
:10062000D5FC37A3D3E9002302F04AFD02460B466E
:1006300014461D463E4B1B88184602F0D7FC024666
:100640000B462046294602F083FB02460B46144621
:100650001D46786802F0BAFC02460B462046294641
:1006600002F078FB02460B461046194602F05AFF8C
:100670000346304A13600BE02D4B1B881A467B68FB
:100680009B1A07EE903AF8EE677A2A4BC3ED007A90
:10069000284BD3ED007AF5EEC07AF1EE10FA12DDB8
:1006A000244BD3ED007ADFED1E6A86EEA77AF1EED9
:1006B000006AC7EE267A9FED1B7A67EE877A1E4B9B
:1006C000C3ED007A03E01C4B4FF000021A60174B99
:1006D0001B6903F48043002B07D1174BD3ED007A3D
:1006E000F1EE677A144BC3ED007A7B689AB2104B37
:1006F0001A80084B00221A6000BF0837BD46B0BD03
:1007000000000000E0FFEF40007003400090034055
:1007100080000020840000204002002070000020A3
:1007200020BCBE4A000070427800002000F00F405C
:1007300042020020740000207C000020FFFFFFFF29
:1007400080B584B000AF034687ED000AFB71D7ED9A
:10075000007AB7EE007AF4EEC77AF1EE10FA03DD14
:100760004FF07E533B600AE0D7ED007ABFEE007A8F
:10077000F4EEC77AF1EE10FA01D52D4B3B603868E4
:1007800002F046FC4FF000022A4B02F0E3FA024668
:100790000B46104619464FF000024FF0804302F01E
:1007A000B9FD02460B46104619461FA3D3E90023A4
:1007B00002F086FC02460B46104619461AA3D3E9FE
:1007C000002302F0C7FA02460B461046194602F013
:1007D000A9FE0346FB60FB79012B10D0164B9B68EA
:1007E00007EE903AB8EE677AD7ED037A67EE277A8C
:1007F000114BFCEEE77A17EE902A1A6110E00E4BCF
:100800009B6807EE903AB8EE677AD7ED037A67EE09
:10081000277A094BFCEEE77A17EE902A9A6100BF1F
:1008200000BF1037BD4680BD000000A09999B93FB8
:10083000000080BF0000F03F00A00340FFFFFFFF6B
:1008400080B584B000AF03460A46FB711346BB80F7
:100850000023FB73684B03F58053DB6B664A43F45C
:10086000000302F58052D363644B1B68634A43F074
:1008700001031360FB79002B29D1BB88184602F0D5
:10088000B5FB5BA3D3E9002302F044FD02460B460F
:100890001046194602F026FE0346594A1360574A8D
:1008A000574B1B68C2F80031544BD3F80831534AF8
:1008B00043F00203C2F80831312000F0A7FF3120D5
:1008C00000F086FF0F21312000F0BEFF85E0FB79AC
:1008D000012B29D1BB88184602F088FB44A3D3E939
:1008E000002302F017FD02460B461046194602F09F
:1008F000F9FD0346424A1360404A414B1B68C2F867
:1009000010313E4BD3F818313C4A43F00203C2F891
:100910001831312000F07AFF312000F059FF0F210B
:10092000312000F091FF58E0FB79022B29D1BB88E0
:10093000184602F05BFB2EA3D3E9002302F0EAFC89
:1009400002460B461046194602F0CCFD03462C4ADF
:1009500013602A4A2A4B1B68C2F82031274BD3F870
:100960002831264A43F00203C2F82831322000F031
:100970004DFF322000F02CFF0F21322000F064FFE9
:100980002BE0FB79032B28D1BB88184602F02EFB05
:1009900017A3D3E9002302F0BDFC02460B46104624
:1009A000194602F09FFD0346154A1360134A144B83
:1009B0001B68C2F83031114BD3F838310F4A43F07D
:1009C0000203C2F83831332000F020FF332000F05A
:1009D000FFFE0F21332000F037FF084B1B68074A4A
:1009E00023F00203136000BF1037BD4680BD00BF77
:1009F000F168E388B5F8F43E0070044000700340ED
:100A00000001002080B400AF094B9B68084A43F006
:100A100080739360064BDB68054A43F08073D360B4
:100A2000044B01221A7000BFBD465DF8047B70477D
:100A300000A004404402002080B400AF094B1B68B2
:100A4000084A43F080731360064B5B68054A43F025
:100A500080735360044B01221A7000BFBD465DF8DD
:100A6000047B704700C004404502002080B500AF01
:100A700001220349022000F077FB00BF80BD00BFC8
:100A8000001E030080B500AF9FED110A002003F0A7
:100A90006AFF9FED0F0A012003F065FFDFED0C0AEE
:100AA0009FED0B0A03F070FF00224FF4003100208D
:100AB00000F0A6FB01224FF40041002000F0A0FB53
:100AC00001224FF48031002000F09AFB00BF80BD6E
:100AD0000000000080B483B000AF0346FB7197F9BB
:100AE0000730002B12DBFB7903F01F020A4997F94C
:100AF00007305B09012000FA02F2203341F823207D
:100B0000BFF34F8F00BFBFF36F8F00BF00BF0C3725
:100B1000BD465DF8047B704700E100E080B500AFA2
:100B20004920FFF7D7FF0D4B00229A600B4B9B68C3
:100B30000A4A43F00C039360084B1722DA60074B14
:100B400000221A62054B04225A62044B00221A60EA
:100B5000024B03221A6000BF80BD00BF00B00B40F3
:100B600080B483B000AF0023BB80534B9B68524AD4
:100B700023F063039360504B9B684F4A43F0750327
:100B800093604D4B1B6A4C4A23F0400313624A4B5F
:100B90005B6A494A23F00B035362474B5B6A464A40
:100BA00043F007035362444B5B6A434A43F08003BC
:100BB000536200BF404B1B6803F08003002BF9D049
:100BC0003D4B5B6A03F04003402B08D10023FB71CF
:100BD000394B5B6A384A23F08003536265E0002397
:100BE000BB80354BDB6CBB80334B9B6C9AB2BB88B4
:100BF0001344BB80304B5B6C9AB2BB881344BB8000
:100C00002D4B1B6C9AB2BB881344BB802A4BDB6B09
:100C10009AB2BB881344BB80274B9B6B9AB2BB88AC
:100C20001344BB80BB885B08BB80BB886FEA43432F
:100C30006FEA5343BB80204ABB88D3620023BB804A
:100C40001D4BDB6EBB801C4B9B6E9AB2BB88134462
:100C5000BB80194B5B6E9AB2BB881344BB80164BAA
:100C60001B6E9AB2BB881344BB80134BDB6D9AB2E8
:100C7000BB881344BB80104B9B6D9AB2BB88134456
:100C8000BB80BB885B08BB80BB886FEA43436FEACD
:100C90005343BB80084ABB881363074B5B6A064A11
:100CA00023F0800353620123FB71FB7918460C3754
:100CB000BD465DF8047B704700B00B4080B400AFC8
:100CC000324B2C225A70314B98221A7000BF2F4B96
:100CD0009B79DBB203F00203002BF8D000BF2B4B53
:100CE0009B79DBB203F01003002BF8D100BF274B38
:100CF0009B79DBB29B0803F00303022BF7D1234B54
:100D000003221A71214B5A225A7100BF1F4B9B7943
:100D1000DBB203F02003002BF8D000BF1B4B9B7904
:100D2000DBB203F04003002BF8D0194B03F58053DE
:100D30001A46184B5364154B1B78DBB2134A03F069
:100D40003F03DBB2137000BF104B9B79DBB29B08F3
:100D500003F00303032BF7D10D4B03F580535B68BE
:100D60000B4A43F4805302F580525360084B03F55D
:100D700080531B6C064A43F0010302F58052136452
:100D800000BFBD465DF8047B704700BF00400640D1
:100D9000007004400000130180B400AF464B03F51F
:100DA00080539B6B444A43F4785302F5805293631B
:100DB000424B4FF4A072DA63404B4FF4A0721A64B6
:100DC0003E4B4FF4A0725A643D4B4FF4A0725A62EE
:100DD0003C4B4FF480721A643A4B4FF480725A6461
:100DE000384B4FF480725A62364B4FF480729A62DD
:100DF000344B4FF48072DA62324B4FF480721A63D4
:100E00002F4B40F243329A622D4B40F24332DA626A
:100E10002C4B40F243329A632A4B40F24332DA635E
:100E2000274B4FF440729A64254B4FF44072DA64BA
:100E3000234B4FF4A0721A65214B4FF4A0725A65F0
:100E40001F4B4FF4A0729A651D4B4FF4A072DA65E8
:100E50001B4B00221A601A4B00225A60194B0022C9
:100E60001A62174B4FF4A0721A64154B4FF4A0721C
:100E70005A64144B4FF480725A63104B4FF4A072B3
:100E80005A610E4B4FF4A0729A630F4B5B690E4A86
:100E900043F4005353610D4B5B680C4A43F4003339
:100EA0005360094B5B68084A43F40053536000BF2A
:100EB000BD465DF8047B704700700440009004401C
:100EC00000A0044000B0044080F00F4000F00F404C
:100ED00080B400AF254B03F580539B6A234A43F44B
:100EE000806302F580529362204B03F58053DB6AE6
:100EF0001E4A43F4805302F58052D3621B4B03F524
:100F000080531B6B194A43F0106302F58052136340
:100F1000164B03F58053DB6B144A43F0806302F5F4
:100F20008052D363114B03F580535B6B0F4A43F43C
:100F3000015302F5805253630C4B03F58053DA6B77
:100F40000A490B4B134301F58052D363074B03F55A
:100F500080531B6C054A43F0060302F5805213646C
:100F600000BFBD465DF8047B704700BF00700440C1
:100F70000010808B80B483B000AF104B7B600F4BB0
:100F80005B78DBB20D4A63F07D03DBB253707B68A4
:100F90001B7843F03F03DAB27B681A7000BF074B3F
:100FA0005B78DBB203F00403002BF8D000BF00BF76
:100FB0000C37BD465DF8047B704700BF004007401A
:100FC00080B500AFFFF784FF064B1B68054A23F08E
:100FD00001031360FFF772FEFFF7DEFEFFF7CAFFA3
:100FE00000BF80BD00D0004080B582B000AF034696
:100FF0000A46FB711346BB712B4B03F58053DB6A2A
:10100000294A43F4805302F58052D362BB79002B06
:1010100002D0012B32D042E0FB79002B15D1002009
:1010200000F048F8214B93F82130DBB21F4A63F0FF
:101030001F03DBB282F821301C4B002283F82220F0
:101040001A4B0F2283F8232026E0FB79012B23D1B2
:10105000012000F02FF8164B93F82130DBB2144A30
:1010600063F05F03DBB282F82130114B002283F87A
:1010700022200F4B0F2283F823200DE0FB79002B59
:1010800003D1002000F016F808E0FB79012B05D110
:10109000012000F00FF801E000BF00E000BF00BF3A
:1010A0000837BD4680BD00BF0070044000C00C4042
:1010B00000D00C4080B485B000AF0346FB71FB79D3
:1010C000002B02D0012B22D043E0254BBB60002334
:1010D000FB7308E0BB6800221A80FB7B0133FB73C3
:1010E000BB680233BB60FB7B0F2BF3D91C4B022286
:1010F00083F820201A4B002283F82120184B00226D
:1011000083F82220164B0F2283F8232021E0154B71
:10111000BB600023FB7308E0BB6800221A80FB7BE6
:101120000133FB73BB680233BB60FB7B0F2BF3D92E
:101130000C4B022283F820200A4B002283F8212046
:10114000084B002283F82220064B0F2283F823202D
:1011500000BF00BF1437BD465DF8047B704700BF79
:1011600000C00C4000D00C4080B485B000AF0346F6
:101170003960FB711346BB71FB79042B1BD801A2AC
:1011800052F823F0991100009F110000A5110000F2
:10119000AB110000B1110000144BFB600BE0144BCD
:1011A000FB6008E0134BFB6005E0134BFB6002E0C3
:1011B000124BFB6000BFBB79002B06D1FB681A689D
:1011C0003B681A43FB681A6009E0BB79012B06D122
:1011D000FB681A683B68DB431A40FB681A6000BF73
:1011E0001437BD465DF8047B704700BF14F00F4014
:1011F00054F00F4094F00F40D4F00F4014F10F4022
:1012000080B485B000AF03463960FB711346BB71F3
:10121000FB79042B25D801A252F823F031120000EB
:101220003B120000451200004F120000591200004E
:10123000184BFB60184BBB6013E0184BFB60184B5E
:10124000BB600EE0174BFB60174BBB6009E0174B10
:10125000FB60174BBB6004E0164BFB60164BBB609A
:1012600000BFBB79002B06D1FB681A683B681A43A4
:10127000FB681A6008E0BB79012B05D1BB681A68CE
:101280003B681A43BB681A6000BF1437BD465DF85F
:10129000047B704700F00F4008F00F4040F00F4013
:1012A00048F00F4080F00F4088F00F40C0F00F4032
:1012B000C8F00F4000F10F4008F10F4080B483B038
:1012C00000AF0346FB7197F90730002B0BDBFB796E
:1012D00003F01F02074997F907305B09012000FA64
:1012E00002F241F8232000BF0C37BD465DF8047BB5
:1012F000704700BF00E100E080B483B000AF034658
:10130000FB7197F90730002B0CDBFB7903F01F0210
:10131000074997F907305B09012000FA02F26033B0
:1013200041F8232000BF0C37BD465DF8047B7047B1
:1013300000E100E080B483B000AF03463960FB7188
:1013400097F90730002B0ADB3B68DAB20C4997F9B2
:1013500007301201D2B20B4483F800230AE03B6845
:10136000DAB20849FB7903F00F03043B1201D2B251
:101370000B441A7600BF0C37BD465DF8047B7047FE
:1013800000E100E000ED00E080B500AF894B03F51F
:101390008053DB6B874A43F0807302F58052D3633E
:1013A000854B4FF480625A60834B4FF480629A60A1
:1013B000814B4FF48062DA607F4B4FF480621A6198
:1013C0007E4B5B6D7D4A43F0040353657B4B5B6D45
:1013D0007A4A23F001035365784BD3F88030774A7B
:1013E00023F00103C2F88030744B00225A60734B23
:1013F00040F6C4129A60714B0022DA646F4B0022EF
:10140000DA606E4BDB686D4A43F02803D3606B4BA8
:1014100000225A61694B5B69684A43F028035361B3
:10142000664B0022DA61654BDB69644A43F02803AE
:10143000D361624B00225A62604B5B6A5F4A43F0A1
:10144000280353625D4B00221A605C4B00221A6134
:101450005A4B00229A61594B00221A62574B0022C4
:101460009A62564B1B68554A43F008031360534B6E
:10147000D3F89830514A43F40073C2F898304D4B7A
:1014800003F58053DB6B4B4A43F0007302F5805247
:10149000D3634B4B4FF450721A63494B4FF4507265
:1014A0005A63484B5B6D474A43F004035365454B11
:1014B0005B6D444A23F001035365424B00225A609E
:1014C000404B4FF6FF729A603E4B0022DA643D4B70
:1014D0000022DA603B4BDB683A4A43F04403D360B6
:1014E000384B00225A61374B5B69364A43F044035C
:1014F0005361344B4B221A602B20FFF7FDFE2B204B
:10150000FFF7DCFE01212B20FFF714FF2E4B5B6D54
:101510002D4A43F0040353652B4B5B6D2A4A23F09D
:1015200001035365284BD3F88030274A23F0010389
:10153000C2F88030244B00225A60234B40F642729E
:101540009A60214B0022DA641F4B0022DA601E4BA6
:10155000DB681D4A43F02803D3601B4B00225A610D
:10156000194B5B69184A43F028035361164B00225C
:101570001A60154B9B68144A1449A1FB0313DB083E
:101580001361114B9B68104A1049A1FB0313DB0840
:1015900093610D4B1B680C4A43F00F0313600A4B19
:1015A000D3F89830084A43F40073C2F8983000BF6B
:1015B00080BD00BF0070044000B0044000800340C4
:1015C000009004400090034000A00340CDCCCCCC60
:1015D00080B483B000AF87ED010AC7ED000AD7EDF4
:1015E000017AB7EE007AF4EEC77AF1EE10FA03DD75
:1015F0004FF07E537B600AE0D7ED017ABFEE007AB0
:10160000F4EEC77AF1EE10FA01D5464B7B60D7EDC8
:10161000007AB7EE007AF4EEC77AF1EE10FA03DD45
:101620004FF07E533B600AE0D7ED007ABFEE007AC0
:10163000F4EEC77AF1EE10FA01D53A4B3B60D7EDE4
:10164000017AF5EEC07AF1EE10FA14DD364B9B68A4
:1016500007EE903AB8EE677AD7ED017A67EE277A0F
:10166000FCEEE77A17EE903A9AB22F4B1A612E4BA6
:1016700000229A6219E0D7ED017AF1EE677AC7EDA0
:10168000017A294B9B6807EE903AB8EE677AD7ED5E
:10169000017A67EE277AFCEEE77A17EE903A9AB273
:1016A000214B9A62204B00221A61D7ED007AF5EEA9
:1016B000C07AF1EE10FA14DD1B4B9B6807EE903AEE
:1016C000B8EE677AD7ED007A67EE277AFCEEE77A14
:1016D00017EE903A9AB2144B1A62134B00229A6199
:1016E00019E0D7ED007AF1EE677AC7ED007A0E4B7C
:1016F0009B6807EE903AB8EE677AD7ED007A67EE0E
:10170000277AFCEEE77A17EE903A9AB2064B9A6186
:10171000054B00221A6200BF0C37BD465DF8047B02
:10172000704700BF000080BF0080034080B400AF5E
:10173000174B03F580535B6B154A43F0400302F5EA
:1017400080525363134B40F243521A66114B40F2DE
:1017500063525A66104B114A9A600F4B40F20112C5
:10176000DA600F4B0F4A1A600D4B40F201125A60BB
:101770000D4B00225A700C4B5B78DBB20A4A43F0E7
:101780001703DBB2537000BFBD465DF8047B7047A2
:101790000070044000D0044000A0044001010A0190
:1017A00000C00440010109010060064080B400AFA0
:1017B000064B9B78DBB2054A63F07F03DBB2937084
:1017C00000BFBD465DF8047B704700BF0060064067
:1017D00080B483B000AF0346FB7197F90730002B4C
:1017E0000BDBFB7903F01F02074997F907305B0910
:1017F000012000FA02F241F8232000BF0C37BD4659
:101800005DF8047B704700BF00E100E080B483B066
:1018100000AF0346FB7197F90730002B0CDBFB7917
:1018200003F01F02074997F907305B09012000FA0E
:1018300002F2603341F8232000BF0C37BD465DF84B
:10184000047B704700E100E080B483B000AF034642
:101850003960FB7197F90730002B0ADB3B68DAB27D
:101860000C4997F907301201D2B20B4483F80023D8
:101870000AE03B68DAB20849FB7903F00F03043B46
:101880001201D2B20B441A7600BF0C37BD465DF888
:10189000047B704700E100E000ED00E080B483B01D
:1018A00000AF0346FB71FB79002B08D1184BD3F82E
:1018B0000831174A43F00103C2F8083122E0FB79EE
:1018C000012B08D1124BD3F81831114A43F0010310
:1018D000C2F8183116E0FB79022B08D10C4BD3F873
:1018E00028310B4A43F00103C2F828310AE0FB79A2
:1018F000032B07D1064BD3F83831054A43F00103D7
:10190000C2F8383100BF0C37BD465DF8047B704724
:101910000070034080B485B000AF0346FB71002324
:10192000FB810023FB8125E0FA79F98916481346EB
:101930009B0013445B000B449B0003440022DA70BD
:10194000FA79F989104813469B0013445B000B4455
:10195000002220F82320FA79F9890B4813469B00CE
:1019600013445B000B449B00034401229A70FB89E3
:101970000133FB81FB89092BD6D900BF00BF143787
:10198000BD465DF8047B70478800002080B485B0B8
:1019900000AF03460A46FB711346BB800023FB8160
:1019A0000023BB810023FB810023BB8104E0BB89B2
:1019B0000133BB81BB89FB81BB89092B0FD8FA7925
:1019C000B9892A4813469B0013445B000B449B00D3
:1019D00003449B7883F00103DBB2002BE7D1BB8982
:1019E0000A2B14D1FA79BB89591E204813469B0053
:1019F00013445B000B449B0003449B7883F001037A
:101A0000DBB2002B03D04FF6FF73FB8125E0FA79A0
:101A1000B7F90E10154813469B0013445B000B44A6
:101A20009B00034400229A70FA79B7F90E100F4810
:101A300013469B0013445B000B44BA8820F8232014
:101A4000FA79B7F90E10094813469B0013445B005E
:101A50000B449B0003440022DA70B7F90E3018469D
:101A60001437BD465DF8047B704700BF8800002036
:101A700080B483B000AF03460A46FB711346BB80B7
:101A8000FA79B988074813469B0013445B000B445E
:101A90009B000344DB7818460C37BD465DF8047B99
:101AA000704700BF8800002080B483B000AF0346B9
:101AB000FB710B46BB8013467B80FA79B9881348CB
:101AC00013469B0013445B000B449B00034400221D
:101AD000DA70FA79B9880D4813469B0013445B000D
:101AE0000B447A8820F82320FA79B98807481346EE
:101AF0009B0013445B000B449B00034400229A703C
:101B000000BF0C37BD465DF8047B7047880000209D
:101B100080B483B000AF0023FB80254BD3F80C3199
:101B2000234A43F00103C2F80C31214BD3F80431AE
:101B30003B600023FB8031E0FB881E4A9B0013447E
:101B40009B7883F00103DBB2002B0ED0FB88194A8F
:101B500032F82330002B08D0FB88164A32F82320B5
:101B6000013A91B2134A22F82310FB88114A9B00D4
:101B700013449B7883F00103DBB2002B0BD0FB886E
:101B80000C4A32F82330002B05D1FB88094A9B0010
:101B900013440122DA70FB880133FB80FB88092B98
:101BA000CAD900BF00BF0C37BD465DF8047B704743
:101BB000007003408800002080B483B000AF002391
:101BC000FB80294BD3F81C31274A43F00103C2F8AC
:101BD0001C31254BD3F814313B600023FB8039E0E6
:101BE000FB88224A0A339B0013449B7883F001034D
:101BF000DBB2002B12D0FB881C4A0A3332F82330A8
:101C0000002B0BD0FB88194903F10A0231F822207E
:101C1000013A91B2154A0A3322F82310FB88134A7D
:101C20000A339B0013449B7883F00103DBB2002B43
:101C30000DD0FB880D4A0A3332F82330002B06D131
:101C4000FB880A4A0A339B0013440122DA70FB889E
:101C50000133FB80FB88092BC2D900BF00BF0C37C2
:101C6000BD465DF8047B704700700340880000208B
:101C700080B483B000AF0023FB80294BD3F82C3114
:101C8000274A43F00103C2F82C31254BD3F8243105
:101C90003B600023FB8039E0FB88224A14339B0021
:101CA00013449B7883F00103DBB2002B12D0FB8836
:101CB0001C4A143332F82330002B0BD0FB8819490F
:101CC00003F1140231F82220013A91B2154A14337B
:101CD00022F82310FB88134A14339B0013449B788B
:101CE00083F00103DBB2002B0DD0FB880D4A1433C7
:101CF00032F82330002B06D1FB880A4A14339B00AC
:101D000013440122DA70FB880133FB80FB88092B26
:101D1000C2D900BF00BF0C37BD465DF8047B7047D9
:101D2000007003408800002080B483B000AF00231F
:101D3000FB80294BD3F83C31274A43F00103C2F81A
:101D40003C31254BD3F834313B600023FB8039E034
:101D5000FB88224A1E339B0013449B7883F00103C7
:101D6000DBB2002B12D0FB881C4A1E3332F8233022
:101D7000002B0BD0FB88194903F11E0231F82220F9
:101D8000013A91B2154A1E3322F82310FB88134AF8
:101D90001E339B0013449B7883F00103DBB2002BBE
:101DA0000DD0FB880D4A1E3332F82330002B06D1AC
:101DB000FB880A4A1E339B0013440122DA70FB8819
:101DC0000133FB80FB88092BC2D900BF00BF0C3751
:101DD000BD465DF8047B704700700340880000201A
:101DE00080B400AF414B03F58053DB6B3F4A43F4B3
:101DF000005302F58052D3633C4B03F58053DB6BF9
:101E00003A4A43F4805302F58052D363374B03F5CB
:101E100080539B6B354A43F4C05302F58052936361
:101E2000334B4FF4A0721A60314B4FF410725A6169
:101E30002F4B4FF410729A612D4B4FF41072DA61F0
:101E40002C4B4FF4A0721A612A4B4FF4E8625A618E
:101E5000284B4FF4E8629A61264B4FF4E862DA614E
:101E6000244B4FF4A0729A60224B4FF4A072DA60B8
:101E70001F4B4FF4A0725A631D4B4FF4A0729A642B
:101E80001D4B5B691C4A43F0010353611A4B5B69AC
:101E9000194A43F400535361174B5B69164A23F404
:101EA00080235361154B5B69144A23F0040353618B
:101EB000124B5B69114A43F0100353610E4B5B6890
:101EC0000D4A43F0010353600B4B5B680A4A43F42D
:101ED00000535360094B5B68084A43F0100353609A
:101EE00000BFBD465DF8047B704700BF0070044032
:101EF00000B0044000C0044080F00F40C0F00F402C
:101F000080B483B000AF0346FB71FB79022B1ED077
:101F1000022B2ADC002B02D0012B0CD025E0164B23
:101F20001B68154B00221A60134B1A681249134B99
:101F300013430B6019E0124B1B68114B00221A600F
:101F40000F4B1A680E490D4B13430B600DE00D4B00
:101F50001B680C4B00221A600A4B1B68094A43F0AD
:101F6000004343F00113136000BF00BF0C37BD46B0
:101F70005DF8047B704700BF00C00240010007808D
:101F800000D0024000C00A4080B483B000AF0346D6
:101F90003960FB711346BB71FB79022B2AD0022BEF
:101FA0003ADC002B02D0012B12D035E0BB79002B9C
:101FB00006D01C4B1A681B493B6813430B602BE08F
:101FC000184B1A683B68DB43164913400B6023E04B
:101FD000BB79002B06D0144B1A6813493B68134396
:101FE0000B6019E0104B1A683B68DB430E49134045
:101FF0000B6011E0BB79002B06D00A4B1A68094927
:102000003B6813430B6006E0064B1A683B68DB43F2
:10201000044913400B6000BF00BF0C37BD465DF89C
:10202000047B704700C0024000D0024080B483B0FF
:1020300000AF03463960FB71FB79022B48D0022BBD
:102040006CDC002B02D0012B21D067E03B68002B19
:102050000DD1354BDB68344B0022DA60324BDB6844
:10206000314A43F07C5343F48873D36051E03B68BA
:10207000B3F1805F4DD12C4B1B692B4B00221A61B1
:10208000294B1A692849294B13430B6141E03B68EE
:10209000002B0DD1264BDB68254B0022DA60244B48
:1020A000DB68234A43F07C5343F48873D36032E007
:1020B0003B68B3F1805F2ED11D4B1B691C4B002286
:1020C0001A611B4B1A691A491A4B13430B6122E020
:1020D0003B68002B0DD1184BDB68174B0022DA60F0
:1020E000154BDB68144A43F0685343F00403D36094
:1020F00013E03B68B3F1805F0FD10F4B1B690E4BB0
:1021000000221A610C4B1A690B490C4B13430B61EB
:1021100003E000BF02E000BF00E000BF00BF0C37DB
:10212000BD465DF8047B704700C002401001013ECF
:1021300000D002401001013A00C00A4010010238EC
:1021400080B483B000AF0346FB71FB79022B12D041
:10215000022B16DC002B02D0012B06D011E00C4B19
:102160001B6B0B4B00221A630BE0094B1B6B084BDC
:1021700000221A6305E0064B1B6B054B00221A6315
:1021800000BF00BF0C37BD465DF8047B704700BF41
:1021900000C0024080B483B000AF0346FB71FB79FE
:1021A000022B14D0022B19DC002B02D0012B07D0FC
:1021B00014E00D4B1B680C4A23F0010313600DE083
:1021C0000A4B1B68094A23F00103136006E0084B21
:1021D0001B68074A23F00103136000BF00BF0C37E0
:1021E000BD465DF8047B704700C0024000D002404D
:1021F00000C00A4080B483B000AF0346FB71FB7996
:10220000022B14D0022B19DC002B02D0012B07D09B
:1022100014E00D4B1B680C4A43F0010313600DE002
:102220000A4B1B68094A43F00103136006E0084BA0
:102230001B68074A43F00103136000BF00BF0C375F
:10224000BD465DF8047B704700C0024000D00240EC
:1022500000C00A4080B485B000AF03463960FB710E
:10226000FB79022B1CD0022B25DC002B02D0012B8A
:102270000BD020E0134BDA6A3B6813403A689A426D
:102280000CBF01230023FB7315E00F4BDA6A3B6898
:1022900013403A689A420CBF01230023FB730AE003
:1022A0000A4BDA6A3B6813403A689A420CBF012332
:1022B0000023FB7300BFFB7B18461437BD465DF857
:1022C000047B704700C0024000D0024000C00A40BA
:1022D00080B483B000AF03463960FB71FB79022BF9
:1022E00014D0022B19DC002B02D0012B07D014E0F4
:1022F0000D4BDA6A0C493B681343CB620DE00B4B84
:10230000DA6A0A493B681343CB6206E0084BDA6A93
:1023100007493B681343CB6200BF00BF0C37BD4683
:102320005DF8047B704700BF00C0024000D002404F
:1023300000C00A4080B586B000AFB9607A601A4626
:102340000346FB731346BB7300237B617A68BB684B
:102350001A43BB7BDB061A433B6A1A43BB8C13430D
:102360007B61FB7B022B0ED0022B1CDC002B02D0EE
:10237000012B04D017E00E4A7B69536313E00D4A2A
:102380007B6953630FE000BF4FF000710220FFF73D
:1023900061FF034683F00103DBB2002BF4D1064A50
:1023A0007B69536300BF00BF1837BD4680BD00BFC7
:1023B00000C0024000D0024000C00A4080B485B096
:1023C00000AF0346FB71FB79022B0ED0022B10DC11
:1023D000002B02D0012B04D00BE0094B9B6BFB6060
:1023E00007E0084B9B6BFB6003E0074B9B6BFB60BC
:1023F00000BFFB6818461437BD465DF8047B704784
:1024000000C0024000D0024000C00A4080B582B047
:1024100000AF144B1B79FB71FB7903F00803002B11
:1024200008D0104B1B79FB710E4BDB79BB71BB796C
:102430000133BB71FB7903F02003002B0DD0094B56
:10244000DB797B71084B1B681B68002B05D0064BA2
:102450001B681B687A791046984700BF0837BD464D
:1024600080BD00BF00D006400000002080B582B0D3
:1024700000AF144B1B79FB71FB7903F00803002BB1
:1024800008D0104B1B79FB710E4BDB79BB71BB790C
:102490000133BB71FB7903F02003002B0DD0094BF6
:1024A000DB797B71084B1B681B68002B05D0064B42
:1024B0001B681B687A791046984700BF0837BD46ED
:1024C00080BD00BF00A00E400400002080B500AF1A
:1024D000144B5B781946134B9B781A46124801F04F
:1024E000BBFB104BDB7819460E4B1B791A460F4885
:1024F00001F0B2FB0B4B1B7A19460A4B5B7A1A466A
:10250000094801F0A9FB074B9B7A1946054BDB7A7A
:102510001A46064801F0A0FB054801F09DFB00BFEC
:1025200080BD00BF9C010020545300006053000098
:102530006C53000080B584B000AF78600B46FB7030
:10254000FA7BFB789A4217D2FB7B132B14D8FA7BC9
:102550001346DB009B1A0A4A9818FA7B13465B0065
:1025600013445B001A467B681344194602F086FA4E
:10257000FB7B0133FB73E3E700BF1037BD4680BD33
:102580000C01002080B485B000AF78600B46FB7072
:10259000234B00221A600023BB73BA7BFB789A425C
:1025A00037D20023FB730023BB60BB68132B1EDCF8
:1025B000BA7B13465B0013445B001A467B681344E6
:1025C00019791848BA681346DB009B1A034405338F
:1025D0001B78994207D10123FB73114B1B68013310
:1025E0000F4A136003E0BB680133BB60DDE7FB7B90
:1025F00083F00103DBB2002B07D00A49BA68134607
:10260000DB009B1A0B4401221A70BB7B0133BB73A6
:10261000C3E700BF1437BD465DF8047B704700BFB9
:10262000980100200C01002080B483B000AF4FF06F
:10263000FF337B607B6801337B6046497A681346D1
:10264000DB009B1A0B441B78002B00D0F2E74248BA
:1026500040497A681346DB009B1ACA180346116882
:1026600019609188927999809A717B6801337B60B7
:1026700038497A681346DB009B1A0B441B78002B01
:1026800000D0F2E7344933487A681346DB009B1ADE
:10269000C218CB1D116819609188927999809A713E
:1026A0002E4B1B68023B2D4A13602C4B1B68002BE2
:1026B00049DD7B6801337B6026497A681346DB007D
:1026C0009B1A0B441B7883F00103DBB2002BECD088
:1026D00020497A681346DB009B1A0B4404331A78AE
:1026E0001D4B1B799A420ED21B481A497A68134631
:1026F000DB009B1ACA180346116819609188927909
:1027000099809A7119E013497A681346DB009B1A85
:102710000B4404331A78104BDB7A9A420DD20E49DF
:102720000C487A681346DB009B1AC218CB1D11684F
:1027300019609188927999809A71084B1B68013BC6
:10274000064A1360B1E700BF0C37BD465DF8047B55
:10275000704700BF0C0100209C0100209801002060
:1027600080B582B000AF78607B681433012201210C
:10277000184602F0A5F90F4B1B68012B10DC7B6893
:102780009A697B681B7D19461046FFF7D3FE7B686C
:102790009A697B681B7D19461046FFF7F3FEEAE74E
:1027A000044B1B68012B01DDFFF73EFF00BF08371C
:1027B000BD4680BD9801002080B584B000AF786030
:1027C000084611461A460346FB700B46BB7013467B
:1027D0007B707B6800225A607B6800221A707B68DD
:1027E0000022DA607B6800221A727B6800225A613C
:1027F0007B6800221A747B689B69022283F841205F
:102800007B689B69302283F840207B689B69DB6B87
:10281000FA781A707B689B69DB6B0133BA781A709F
:102820007B689B69184602F05EF97B689B691846D5
:1028300000F09CF80346002B0CBF01230023DBB201
:10284000002B00F082807B689B6993F84030312B2D
:1028500060D10023BB730023FB737B689B6993F8F3
:102860004130BA7B9A4252D27B689B699A6BBB7BA0
:1028700013441B787B737B689B699A6BBB7B01332A
:1028800013441B783B737B689B699A6BBB7B023359
:102890001344BB607B7B012B0FD17B68BA685A6005
:1028A0003B7B304AA2FB03239B08DAB27B681A7099
:1028B000FB7B43F00103FB7321E07B7B022B0FD1F9
:1028C0007B68BA68DA603B7B9B08274AA2FB03233C
:1028D000DAB27B681A72FB7B43F00203FB730EE0F3
:1028E0007B7B042B12D17B68BA685A613B7B9B08C7
:1028F000DAB27B681A74FB7B43F00403FB733A7B08
:10290000BB7B1344DBB20233BB73A6E700BF97F96E
:102910000F3022E07B689B6993F84030032B17D17E
:102920007B689B699B6B1B78FE2B05D07B689B6942
:102930009B6B1B785BB210E07B7883F00103DBB20A
:10294000002B05D06FF0010307E04FF0FF3304E0E8
:102950004FF4FA7001F033FF4DE718461037BD46CB
:1029600080BD00BFABAAAAAA2549922480B584B035
:1029700000AF7860786800F089F80346FB81B7F90A
:102980000E30002B02DAB7F90E3078E07B6893F84E
:102990004230002B40D07B6803F134007B68996B98
:1029A0000023042202F001F80346FB81B7F90E3040
:1029B000002B02DAB7F90E3061E07B689B6B1A7866
:1029C0007B6883F840207B689B6B5A787B6883F830
:1029D00041207B689B6B5B88BB817B6803F1340083
:1029E0007B68996B7B6893F8412007F10A0301F03B
:1029F000DCFF0346FB81B7F90E30002B02DAB7F992
:102A00000E303CE07B89BA899A4237D01E4801F0EB
:102A100023F96FF0020332E07B6803F134007B6836
:102A2000996B0023022201F0C0FF0346FB81B7F936
:102A30000E30002B02DAB7F90E3020E07B689B6B7A
:102A40001A787B6883F840207B689B6B5A787B6898
:102A500083F841207B6803F134007B68996B7B68C5
:102A600093F84120002301F0A0FF0346FB81B7F952
:102A70000E30002B02DAB7F90E3000E000231846C2
:102A80001037BD4680BD00BF8C53000080B586B0B6
:102A900000AF78600023BB75BB7DFB7500237B75A1
:102AA0007B6803F1340007F10F010023012201F0DC
:102AB0007CFF03467B82B7F91230002B21DB7B7D44
:102AC0003B82FB7B1B021AB2B7F9103013431BB2D7
:102AD0003B82FB7B7B753B8A4CF2AF12934205D164
:102AE0007B68012283F84220002322E03B8A4CF2DB
:102AF000AE12934205D17B68002283F84220002366
:102B000017E0FB7D032B10D9BB7D032B05D90B48A8
:102B100001F0A2F84FF0FF330BE0192001F04FFE57
:102B2000BB7D0133BB750023FB75FB7D0133FB755A
:102B3000B6E718461837BD4680BD00BFA053000059
:102B400080B584B000AF786039607B683433396811
:102B5000184601F0FCFF0346FB7397F90F30002B7A
:102B600002DA97F90F3025E000F02CFDB86000F094
:102B700029FD0246BB68D31A104A934294BF012331
:102B80000023DBB2002B13D0786802F0D2F80346A2
:102B9000DB43DBB2DB09DBB2002B04D0786802F048
:102BA000FEF8002306E041F2883001F008FEDEE77F
:102BB0006FF0030318461037BD4680BD3F4B4C00F5
:102BC00080B584B000AF786039607B68DB78FB73D8
:102BD0007B689B78BB73BB7B03F02003002B04D185
:102BE000FB7B03F01003002B05D0094B1B683968F1
:102BF0007868984704E0074B1B68396878689847FD
:102C0000BFF34F8F00BF00BF1037BD4680BD00BF70
:102C1000B8010020BC01002080B500AF034B1B6849
:102C200019460348FFF7CCFF00BF80BDAC01002070
:102C30000060064080B500AF034B5B68194603484F
:102C4000FFF7BEFF00BF80BDAC0100200070064052
:102C500080B500AF034B9B6819460348FFF7B0FFF0
:102C600000BF80BDAC01002000600E4080B500AF09
:102C7000054B1B68054A1268114605489847BFF383
:102C80004F8F00BF00BF80BDD8010020C0010020D1
:102C900000A0064080B500AF054B1B68054A52688E
:102CA000114605489847BFF34F8F00BF00BF80BD56
:102CB000D8010020C001002000B0064080B500AF60
:102CC000054B1B68054A9268114605489847BFF3B3
:102CD0004F8F00BF00BF80BDD8010020C001002081
:102CE00000C0064080B500AF054B1B68054A52691D
:102CF000114605489847BFF34F8F00BF00BF80BD06
:102D0000D8010020C001002000B00E4080B500AF07
:102D10000B4BD3F888300A4A43F47003C2F888306A
:102D2000084B4CF22052DA81064B4DF62812DA811C
:102D3000044B4FF4E9721A8002F0A3F800BF80BD83
:102D400000ED00E00020054081F0004102E000BFFE
:102D500083F0004330B54FEA41044FEA430594EA5B
:102D6000050F08BF90EA020F1FBF54EA000C55EA96
:102D7000020C7FEA645C7FEA655C00F0E2804FEA67
:102D80005454D4EB5555B8BF6D420CDD2C4480EA49
:102D9000020281EA030382EA000083EA010180EA79
:102DA000020281EA0303362D88BF30BD11F0004FC7
:102DB0004FEA01314FF4801C4CEA113102D04042FD
:102DC00061EB410113F0004F4FEA03334CEA133338
:102DD00002D0524263EB430394EA050F00F0A78050
:102DE000A4F10104D5F1200E0DDB02FA0EFC22FA4B
:102DF00005F2801841F1000103FA0EF2801843FA3F
:102E000005F359410EE0A5F120050EF1200E012A2F
:102E100003FA0EFC28BF4CF0020C43FA05F3C0186D
:102E200051EBE37101F0004507D54FF0000EDCF1E6
:102E3000000C7EEB00006EEB0101B1F5801F1BD38F
:102E4000B1F5001F0CD349085FEA30004FEA3C0C93
:102E500004F101044FEA445212F5800F80F09A8089
:102E6000BCF1004F08BF5FEA500C50F1000041EB8D
:102E7000045141EA050130BD5FEA4C0C404141EB91
:102E80000101013C28BFB1F5801FE9D291F0000F8C
:102E900004BF01460020B1FA81F308BF2033A3F13B
:102EA0000B03B3F120020CDA0C3208DD02F1140C32
:102EB000C2F10C0201FA0CF021FA02F10CE002F16D
:102EC0001402D8BFC2F1200C01FA02F120FA0CFC66
:102ED000DCBF41EA0C019040E41AA2BF01EB0451AF
:102EE000294330BD6FEA04041F3C1CDA0C340EDCAD
:102EF00004F11404C4F1200220FA04F001FA02F3F0
:102F000040EA030021FA04F345EA030130BDC4F1AD
:102F10000C04C4F1200220FA02F001FA04F340EAA2
:102F20000300294630BD21FA04F0294630BD94F053
:102F3000000F83F4801306BF81F480110134013D3A
:102F40004EE77FEA645C18BF7FEA655C29D094EAAB
:102F5000050F08BF90EA020F05D054EA000C04BF29
:102F60001946104630BD91EA030F1EBF0021002014
:102F700030BD5FEA545C05D14000494128BF41F0B3
:102F8000004130BD14F580043CBF01F5801130BD17
:102F900001F0004545F0FE4141F470014FF00000A2
:102FA00030BD7FEA645C1ABF194610467FEA655C53
:102FB0001CBF0B46024650EA013406BF52EA0335F5
:102FC00091EA030F41F4002130BD00BF90F0000FE3
:102FD00004BF0021704730B54FF4806404F132041F
:102FE0004FF000054FF0000150E700BF90F0000FD8
:102FF00004BF0021704730B54FF4806404F13204FF
:1030000010F0004548BF40424FF000013EE700BFCE
:1030100042004FEAE2014FEA31014FEA02701FBF5E
:1030200012F07F4393F07F4F81F06051704732F090
:103030007F4208BF704793F07F4F04BF41F40021E7
:10304000704730B54FF4607401F0004521F0004145
:103050001CE700BF50EA010208BF704730B54FF0CF
:1030600000050AE050EA010208BF704730B511F0D0
:10307000004502D5404261EB41014FF4806404F108
:1030800032045FEA915C3FF4D8AE4FF003025FEA8E
:10309000DC0C18BF03325FEADC0C18BF033202EB12
:1030A000DC02C2F1200300FA03FC20FA02F001FA6C
:1030B00003FE40EA0E0021FA02F11444BDE600BF0F
:1030C00070B54FF0FF0C4CF4E06C1CEA11541DBFBE
:1030D0001CEA135594EA0C0F95EA0C0F00F0DEF889
:1030E0002C4481EA030621EA4C5123EA4C5350EA6E
:1030F000013518BF52EA033541F4801143F48013BF
:1031000038D0A0FB02CE4FF00005E1FB02E506F04F
:103110000042E0FB03E54FF00006E1FB03569CF0A4
:10312000000F18BF4EF0010EA4F1FF04B6F5007FAA
:1031300064F5407404D25FEA4E0E6D4146EB06061C
:1031400042EAC62141EA55514FEAC52040EA5E50A5
:103150004FEACE2EB4F1FD0C88BFBCF5E06F1ED84F
:10316000BEF1004F08BF5FEA500E50F1000041EB86
:10317000045170BD06F0004646EA010140EA020033
:1031800081EA0301B4EB5C04C2BFD4EB0C0541EA55
:10319000045170BD41F480114FF0000E013C00F36A
:1031A000AB8014F1360FDEBF002001F0004170BD8E
:1031B000C4F10004203C35DA0C341BDC04F11404A7
:1031C000C4F1200500FA05F320FA04F001FA05F233
:1031D00040EA020001F0004221F0004110EBD37000
:1031E00021FA04F642EB06015EEA430E08BF20EA2C
:1031F000D37070BDC4F10C04C4F1200500FA04F3CF
:1032000020FA05F001FA04F240EA020001F0004160
:1032100010EBD37041F100015EEA430E08BF20EAD3
:10322000D37070BDC4F1200500FA05F24EEA020E1B
:1032300020FA04F301FA05F243EA020321FA04F04A
:1032400001F0004121FA04F220EA020000EBD37001
:103250005EEA430E08BF20EAD37070BD94F0000F01
:103260000FD101F00046400041EB010111F4801F35
:1032700008BF013CF7D041EA060195F0000F18BFE6
:10328000704703F00046520043EB030313F4801F22
:1032900008BF013DF7D043EA0603704794EA0C0FDC
:1032A0000CEA135518BF95EA0C0F0CD050EA4106F2
:1032B00018BF52EA4306D1D181EA030101F000416F
:1032C0004FF0000070BD50EA410606BF1046194697
:1032D00052EA430619D094EA0C0F02D150EA0136A3
:1032E00013D195EA0C0F05D152EA03361CBF1046E4
:1032F00019460AD181EA030101F0004141F0FE4183
:1033000041F470014FF0000070BD41F0FE4141F406
:10331000780170BD70B54FF0FF0C4CF4E06C1CEA06
:1033200011541DBF1CEA135594EA0C0F95EA0C0FBB
:1033300000F0A7F8A4EB050481EA030E52EA033576
:103340004FEA013100F088804FEA03334FF0805597
:1033500045EA131343EA12634FEA022245EA1115C4
:1033600045EA10654FEA00260EF000419D4208BF75
:10337000964244F1FD0404F5407402D25B084FEA22
:103380003202B61A65EB03055B084FEA32024FF4CE
:1033900080104FF4002CB6EB020E75EB030E22BF2B
:1033A000B61A754640EA0C005B084FEA3202B6EBEB
:1033B000020E75EB030E22BFB61A754640EA5C009A
:1033C0005B084FEA3202B6EB020E75EB030E22BF2A
:1033D000B61A754640EA9C005B084FEA3202B6EB2B
:1033E000020E75EB030E22BFB61A754640EADC00EA
:1033F00055EA060E18D04FEA051545EA16754FEA4C
:1034000006164FEAC30343EA52734FEAC2025FEA69
:103410001C1CC0D111F4801F0BD141EA00014FF0F8
:1034200000004FF0004CB6E711F4801F04BF0143C9
:103430000020B4F1FD0C88BFBCF5E06F3FF6AFAEE5
:10344000B5EB030C04BFB6EB020C5FEA500C50F175
:10345000000041EB045170BD0EF0004E4EEA1131F8
:1034600014EB5C04C2BFD4EB0C0541EA045170BDFF
:1034700041F480114FF0000E013C90E645EA060E43
:103480008DE60CEA135594EA0C0F08BF95EA0C0F71
:103490003FF43BAF94EA0C0F0AD150EA01347FF4B9
:1034A00034AF95EA0C0F7FF425AF104619462CE790
:1034B00095EA0C0F06D152EA03353FF4FDAE1046F3
:1034C000194622E750EA410618BF52EA43067FF444
:1034D000C5AE50EA41047FF40DAF52EA43057FF4D4
:1034E000EBAE12E74A0011D212F5001211D20DD53F
:1034F0006FF47873B3EB62520ED44FEAC12343F0FA
:10350000004343EA505323FA02F070474FF00000A3
:10351000704750EA013002D14FF0FF3070474FF052
:10352000000070474FEA4102B2F1E04324BFB3F517
:10353000001CDCF1FE5C0DD901F0004C4FEAC0022A
:103540004CEA5070B2F1004F40EB830008BF20F00E
:103550000100704711F0804F21D113F13872BCBFC8
:1035600001F00040704741F480114FEA5252C2F11D
:103570001802C2F1200C10FA0CF320FA02F018BF66
:1035800040F001004FEAC1234FEAD32303FA0CFCB9
:1035900040EA0C0023FA02F34FEA4303CCE77FEA48
:1035A000625307D150EA01331EBF4FF0FE4040F492
:1035B0004000704701F0004040F0FE4040F4000041
:1035C000704700BF1FB5084B6946186801F00CFD35
:1035D000431C06D0DDE900031844029B1844039BFA
:1035E000184405B05DF804FB08000020014B186882
:1035F000704700BF0800002070B50D4D0D4C641BD6
:10360000A4100026A64209D10B4D0C4C01F020FF5E
:10361000641BA4100026A64205D170BD55F8043BDA
:1036200098470136EEE755F8043B98470136F2E734
:1036300060540000605400006054000064540000B6
:10364000024B0146186800F057B800BF0800002080
:10365000024B0146186800F003B800BF08000020C4
:1036600037B5002944D051F8043C0190002BA1F15A
:103670000404B8BFE41800F099FD1E4A01981368CD
:1036800033B96360146003B0BDE8304000F094BD0E
:10369000A34208D9256861198B4201BF19685B688C
:1036A00049192160EDE71A465B680BB1A342FAD9CC
:1036B00011685518A5420BD1246821445418A3421F
:1036C0001160E0D11C685B68536021441160DAE747
:1036D00002D90C230360D6E7256861198B4204BF29
:1036E00019685B68636004BF491921605460CAE7C8
:1036F00003B030BDDC010020F8B5CD1C25F003057A
:1037000008350C2D38BF0C25002D064601DBA942DB
:1037100003D90C2333600020F8BD00F047FD214998
:103720000A6814469CB9204F3B6823B921463046AD
:1037300000F0AAFA38602946304600F0A5FA431C8A
:1037400023D10C233360304600F036FDE3E72368D5
:103750005B1B17D40B2B03D923601C44256004E0AA
:103760006368A2420CBF0B605360304600F024FD3A
:1037700004F10B00231D20F00700C21ACCD01B1A45
:10378000A350C9E722466468CCE7C41C24F00304B4
:10379000A042E3D0211A304600F076FA0130DDD1A4
:1037A000CFE700BFDC010020E00100202DE9F04F51
:1037B0000D469DB014469846064618B183690BB96C
:1037C00000F036FC894B9D421BD175686B6ED907A2
:1037D00005D4AB899A0502D4A86D01F03EFCAB89F3
:1037E0001B0701D52B69EBB92946304600F0AEFA2C
:1037F000C0B16B6EDC070ED54FF0FF301DB0BDE8D9
:10380000F08F7B4B9D4201D1B568DFE7794B9D423C
:1038100008BFF568DAE7AB899805EDD4A86D01F02B
:103820001DFCE9E70023099320238DF82930CDF80A
:103830000C803023DFF8C0818DF82A304FF0010969
:1038400023469A4613F8012B0AB1252AF9D1BAEB7F
:10385000040B0BD05B4622462946304601F045FB5F
:10386000013000F0AA80099A5A4409929AF800306F
:10387000002B00F0A28000234FF0FF32CDE905239A
:103880000AF1010A049307938DF853301A935446B2
:10389000052214F8011B5848FCF7BAFD049AD8B960
:1038A000D10644BF20238DF85330130744BF2B2388
:1038B0008DF853309AF800302A2B15D0079A5446C9
:1038C00000204FF00A0C214611F8013B303B092B38
:1038D0004ED9B0B1079214E0A0EB080309FA03F344
:1038E00013430493A246D2E7039B191D1B6803915F
:1038F000002BBBBF5B4242F0020207930793B8BFA5
:10390000049223782E2B0CD163782A2B35D1039B7C
:103910001A1D1B680392002BB8BF4FF0FF3302340F
:103920000593DFF8E4A0217803225046FCF770FDF0
:1039300040B14023A0EB0A0003FA00F0049B0343CC
:103940000134049314F8011B2C488DF8281006222A
:10395000FCF75EFD00283FD0294B1BBB039B0733C0
:1039600023F0070308330393099B3B44099367E75C
:103970000CFB02320C460120A5E70023013405931D
:1039800019464FF00A0C204610F8012B303A092A4C
:1039900003D9002BC5D00591C3E70CFB01210446D8
:1039A0000123F0E703AB00932A46164B04A93046E7
:1039B000AFF300800746781CD6D16B6ED90705D4CB
:1039C000AB899A0502D4A86D01F048FBAB895B0670
:1039D0003FF512AF099811E703AB00932A46094B54
:1039E00004A9304600F012F8E4E700BFD853000005
:1039F000F8530000B853000018540000225400008F
:103A000000000000EB4E00001E5400002DE9FF47AF
:103A10000F7E0C9D782F914680460C469A4601F108
:103A2000430207D8622F0AD8002F00F0D880582F01
:103A300000F0A38004F1420584F842703AE0A7F157
:103A40006303152BF6D801A151F823F0A53A000025
:103A5000B93A0000353A0000353A0000353A000026
:103A6000353A0000B93A0000353A0000353A000016
:103A7000353A0000353A0000C53B0000E93A000045
:103A8000A73B0000353A0000353A0000E73B000054
:103A9000353A0000E93A0000353A0000353A0000B6
:103AA000AF3B00002B681A1D1B682A6004F1420519
:103AB00084F842300123A3E020682968060601F15A
:103AC00004030AD50E682B60002E03DA2D237642FC
:103AD00084F843305E480A2319E00E682B6010F02A
:103AE000400F18BF36B2EFE72B682068191D296018
:103AF000010601D51E6802E04606FBD51E88544823
:103B00006F2F0CBF08230A23002184F84310656837
:103B1000A560002DA2BF216821F0040121600EB92B
:103B2000002D4DD01546B6FBF3F103FB1167C75DC1
:103B300005F8017D3746BB420E46F4D9082B0BD160
:103B40002368DE0708D5236961689942DEBF302308
:103B500005F8013C05F1FF35521B2261CDF800A0AC
:103B60004B4603AA2146404601F0D1F901304CD121
:103B70004FF0FF3004B0BDE8F087354881F845705C
:103B80002968236851F8046B29601D0614D5DF07E6
:103B900044BF43F0200323601EB9236823F02003B1
:103BA00023601023B0E7236843F0200323607823C9
:103BB000284884F84530E3E7590648BFB6B2E6E73F
:103BC0001546BBE72B6826686169181D2860350615
:103BD0001B6801D5196002E07006FBD5198000232F
:103BE00023611546BAE72B681A1D2A601D686268B2
:103BF00000212846FCF70CFC08B1401B606063689C
:103C00002361002384F84330A8E723692A46494604
:103C10004046D0470130ABD023689B0713D4E068FF
:103C2000039B9842B8BF1846A4E701233246494691
:103C30004046D04701309BD00135E36803995B1AB9
:103C4000AB42F2DCEBE7002504F11906F5E700BF13
:103C5000295400003A5400000FB40A4B13B51C68F5
:103C600024B1A36913B9204600F0E2F905AB049A28
:103C7000A16801932046FFF799FD02B0BDE810400E
:103C800004B070470800002038B5064D00230446F4
:103C900008462B6000F0FEFA431C02D12B6803B1EA
:103CA000236038BDE4010020F8B50E4614460546F1
:103CB00018B183690BB900F0BBF9214B9C422BD1A1
:103CC0006C68A369A360A3891A072FD523696BB316
:103CD00023692068C01A6369F6B28342374604DC60
:103CE0002146284600F026F930BBA368013BA360BB
:103CF00023685A1C22601E7063690130834204D01D
:103D0000A389DB0706D50A2E04D12146284600F0F8
:103D100011F988B93846F8BD0A4B9C4201D1AC680C
:103D2000CFE7094B9C4208BFEC68CAE7214628460A
:103D300000F00CF80028CBD04FF0FF37EAE700BFC7
:103D4000D8530000F8530000B8530000324B70B550
:103D50001D6806460C4625B1AB6913B9284600F02C
:103D600067F92E4B9C420FD16C68A389B4F90C20E3
:103D700019072CD4DD0611D40923336042F0400327
:103D8000A3814FF0FF303EE0254B9C4201D1AC684F
:103D9000EBE7244B9C4208BFEC68E6E7580712D5D6
:103DA000616B41B104F14403994202D03046FFF700
:103DB00057FC00236363A38923F02403A38100231A
:103DC000636023692360A38943F00803A381236907
:103DD0004BB9A38903F42073B3F5007F03D02146C8
:103DE000304600F0A3F9A089B4F90C2010F00103CB
:103DF0000AD00023A36063695B42A361236943B9CE
:103E000010F08000BAD170BD810758BF6369A3600C
:103E1000F4E70020F7E700BF08000020D8530000B7
:103E2000F8530000B85300008A892DE9F041054697
:103E300010070C4658D44B68002B05DC0B6C002B8C
:103E400002DC0020BDE8F081E66A002EF9D00023F4
:103E500012F480522F682B6032D0606DA3895A070C
:103E600005D56368C01A636B0BB1236CC01A0023BD
:103E70000246E66A216A2846B047431CA38906D158
:103E800029681D292CD82A4ACA40D60728D50022DD
:103E90006260D9042269226004D5421C01D12B68DA
:103EA00003B96065616B2F600029CAD004F1440337
:103EB000994202D02846FFF7D3FB00206063C1E798
:103EC000216A01232846B047411CC7D12B68002B2B
:103ED000C4D01D2B01D0162B01D12F60B1E7A389CF
:103EE00043F04003A381ADE70F69002FA9D09307EA
:103EF0000E6808BF4B690F6018BF0023A6EB0708C8
:103F00008B60B8F1000F9CDD216AA66A43463A46F1
:103F10002846B047002806DCA38943F04003A3816C
:103F20004FF0FF308EE70744A8EB0008E9E700BF39
:103F30000100402038B50B6905460C4613B9002531
:103F4000284638BD18B183690BB900F071F8144BDD
:103F50009C421BD16C68B4F90C30002BEFD0626E20
:103F6000D00704D4990502D4A06D01F076F8284654
:103F70002146FFF759FF636EDA070546E0D4A389AF
:103F80009B05DDD4A06D01F069F8D9E7054B9C4293
:103F900001D1AC68DFE7044B9C4208BFEC68DAE76C
:103FA000D8530000F8530000B8530000002310B5A8
:103FB0000446C0E90033C0E904338360818143666D
:103FC000C2818361194608225C3000F06FFF054B07
:103FD0006362054BA362054BE362054B24622363D6
:103FE00010BD00BFA9500000CB50000003510000DD
:103FF00027510000014901F010B800BF353F000013
:10400000014801F02AB800BF47020020014801F032
:1040100025B800BF47020020014801F01EB800BFCC
:1040200048020020014801F019B800BF48020020F2
:1040300010B50446FFF7F0FFA3691BB1BDE81040BF
:10404000FFF7F0BFC4E912332365134B134A1B6813
:10405000A262A34204BF0123A361204600F020F81E
:104060006060204600F01CF8A060204600F018F8C0
:104070000022E06004216068FFF798FFA068012239
:104080000921FFF793FFE06802221221FFF78EFF5C
:104090000123A361D2E700BFB4530000F53F000045
:1040A000F8B50746FFF7ACFF1E4B1E68B36913B99E
:1040B0003046FFF7BDFF4836D6E90134013B03D552
:1040C00033680BB33668F7E7B4F90C50D5B9164B23
:1040D000E36004F15800656600F0BEFFFFF796FF4D
:1040E000C4E90155C4E904552560A56108222946A3
:1040F00004F15C0000F0DAFEC4E90D55C4E9125584
:104100002046F8BD6834D9E70421384600F06FFF37
:10411000044630600028D5D1FFF778FF0C233B60C0
:10412000EEE700BFB45300000100FFFF8B8973B5B9
:104130009D0706460C4607D504F14703236023611B
:104140000123636102B070BD01AB6A4600F087FFD6
:10415000009905463046FFF7CFFA48B9B4F90C305C
:104160009A05EFD423F0030343F00203A381E3E7AE
:104170000D4BB362A389206043F08003A381009BB1
:104180006361019B20615BB1B4F90E10304600F011
:104190004DF828B1A38923F0030343F00103A38161
:1041A000A0890543A581CDE7F53F0000014800F057
:1041B00054BF00BF46020020014800F04FBF00BFBF
:1041C0004602002038B5074D044608461146002235
:1041D0002A601A4601F037F8431C02D12B6803B15C
:1041E000236038BDE401002038B5064D00230446A5
:1041F00008462B6000F0D6F8431C02D12B6803B1AF
:10420000236038BDE401002038B5074D0023044683
:10421000084611462B6001F066F8431C02D12B685A
:1042200003B1236038BD00BFE401002038B5064D5E
:104230000023044608462B6001F077F8431C02D1A6
:104240002B6803B1236038BDE401002038B5074D69
:1042500004460846114600222A601A4600F0E1FF93
:10426000431C02D12B6803B1236038BDE401002058
:1042700038B5074D04460846114600222A601A4602
:1042800000F078FF431C02D12B6803B1236038BDD6
:10429000E401002070B50C4D2B680BB90B4B2B6063
:1042A00003302E6820F003043444204600F0A0F8C8
:1042B00010B92C60304670BDFFF798F90C230360ED
:1042C0004FF0FF36F6E700BFE80100205002002063
:1042D0002DE9FF47DFF89490CDF8049003270023E1
:1042E00003970124029301AE20463146ABBE05463A
:1042F000DFF87C80CDF8049004230397C8F80050C1
:10430000029320463146ABBE8246144DCDF8049050
:1043100008230397C5F800A0029320463146ABBEA0
:1043200004460F4928680C60013404BF2B680B60F9
:104330000C4B09684FF0FF329A611A62D8F80020DE
:104340001A600022C3E90202C3E904125A60064B54
:1043500001221A6004B0BDE8F08700BFF801002018
:10436000F0010020FC010020EC0100204B54000073
:10437000F4010020042810B5044601D9002010BD26
:10438000064B1B680BB9FFF7A3FF054850F8342014
:104390000132F3D000EBC400F1E700BFEC010020D4
:1043A000FC01002038B50546FFF7E4FF044630B9AC
:1043B000FFF71CF9092303604FF0FF3038BD013DC2
:1043C000012D09D8094B9A681B699A4204D14FF014
:1043D000FF3303600020F1E7206800F056FF00285B
:1043E000ECD14FF0FF332360E8E700BFFC01002071
:1043F000044B23B1984234BF002001207047184677
:10440000704700BF5012002010B5054C237833B917
:10441000044B13B10448AFF300800123237010BD97
:1044200024020020000000007054000008B5034B77
:104430001BB103490348AFF3008008BD0000000032
:10444000280200207054000008B5FBF70CFF08BDDF
:1044500008B5FBF708FF08BD08B5FBF704FF08BD6A
:1044600008B5FBF700FF08BD08B5FBF7FCFE08BD6B
:1044700008B5FBF7F8FE08BD08B5FBF7F4FE08BD6C
:1044800008B5FBF7F0FE08BD08B5FBF7ECFE08BD6C
:1044900008B5FBF7E8FE08BD08B5FBF7E4FE08BD6C
:1044A00008B5FBF7E0FE08BD08B5FBF7DCFE08BD6C
:1044B00008B5FBF7D8FE08BD08B5FBF7D4FE08BD6C
:1044C00008B5FBF7D0FE08BD08B5FBF7CCFE08BD6C
:1044D00008B5FBF7C8FE08BD08B5FBF7C4FE08BD6C
:1044E00008B5FBF7C0FE08BD08B5FBF7BCFE08BD6C
:1044F00008B5FBF7B8FE08BD08B5FBF7B4FE08BD6C
:1045000008B5FBF7B0FE08BD08B5FEF785FB08BD92
:1045100008B5FEF78FFB08BD08B5FBF7A4FE08BD84
:1045200008B5FBF7A0FE08BD08B5FBF79CFE08BD6B
:1045300008B5FBF798FE08BD08B5FBF794FE08BD6B
:1045400008B500F07AFC08BD08B5FBF78CFE08BD85
:1045500008B500F07BFC08BD08B5FBF784FE08BD7C
:1045600008B500F07CFC08BD08B5FBF77CFE08BD73
:1045700008B5FBF778FE08BD08B5FBF774FE08BD6B
:1045800008B5FBF770FE08BD08B5FBF76CFE08BD6B
:1045900008B5FBF768FE08BD08B5FBF764FE08BD6B
:1045A00008B5FBF760FE08BD08B5FBF75CFE08BD6B
:1045B00008B5FBF758FE08BD08B5FBF754FE08BD6B
:1045C00008B5FBF750FE08BD08B5FBF74CFE08BD6B
:1045D00008B5FBF748FE08BD08B5FBF744FE08BD6B
:1045E00008B5FBF740FE08BD08B5FBF73CFE08BD6B
:1045F00008B5FBF738FE08BD08B5FBF734FE08BD6B
:1046000008B5FBF730FE08BD08B5FBF72CFE08BD6A
:1046100008B5FBF728FE08BD08B5FBF724FE08BD6A
:1046200008B500F025FC08BD08B5FBF71CFE08BD69
:1046300008B5FBF718FE08BD08B5FBF714FE08BD6A
:1046400008B5FBF710FE08BD08B5FBF70CFE08BD6A
:1046500008B5FEF7FDFA08BD08B5FBF704FE08BD76
:1046600008B5FBF700FE08BD08B5FBF7FCFD08BD6B
:1046700008B5FBF7F8FD08BD08B5FBF7F4FD08BD6C
:1046800008B5FBF7F0FD08BD08B5FBF7ECFD08BD6C
:1046900008B5FBF7E8FD08BD08B5FBF7E4FD08BD6C
:1046A00008B5FBF7E0FD08BD08B5FBF7DCFD08BD6C
:1046B00080B500AFFDF73AF800BF80BD80B500AF10
:1046C000FDF774F800BF80BD80B500AFFCF726FA97
:1046D000FCF746FAFCF722FA00BF80BD80B400AFB9
:1046E00000BFBD465DF8047B704780B500AFFCF7A6
:1046F00067FC00BF80BD80B500AF00210020FCF743
:1047000073FC00BF80BD80B400AF00BFBD465DF844
:10471000047B704780B500AF0120FDF7FBF8022055
:10472000FDF7F8F801210120FCF78AF801210220A9
:10473000FCF786F800BF80BD80B500AF0120FDF713
:10474000ADF80220FDF7AAF800BF80BD80B582B0A9
:1047500000AF03460A46FB711346BB80BA88FB795B
:1047600011461846FDF712F9034618460837BD46AC
:1047700080BD80B582B000AF0346FB710B46BB80A5
:1047800013467B807A88B988FB791846FDF78CF947
:1047900000BF0837BD4680BD80B582B000AF03467C
:1047A0000A46FB711346BB80BA88FB79114618464E
:1047B000FDF75EF9034618460837BD4680BD80B454
:1047C00085B000AF78600023FB600023BB6000234E
:1047D000FB6005E0BB680133BB60FB680133FB6035
:1047E000FA687B689A42F5DB00BF00BF1437BD460C
:1047F0005DF8047B704780B500AFFCF797FF00BF02
:1048000080BD80B500AFFCF7D1FF00BF80BD80B593
:1048100000AF00224FF470010120FCF7A5FC00BF9F
:1048200080BD80B400AF00BFBD465DF8047B70471B
:1048300080B400AF00BFBD465DF8047B704780B414
:1048400000AF00BFBD465DF8047B704780B500AF88
:10485000FDF7C6FA0120FDF773FC0120FDF750FBC0
:104860004FF080510120FDF7E1FB01224FF4803130
:104870000120FDF789FB00BF80BD80B500AF00209F
:10488000FDF788FC0120FDF785FC4FF080510020EA
:10489000FDF71EFD4FF080510120FDF719FD00BF0F
:1048A00080BD80B500AF0120FDF7A4FC00BF80BD36
:1048B00080B586B002AF0346FB80FB8801934FF4BE
:1048C00080130093012300224FF080510120FDF757
:1048D00031FD00BF4FF400310120FDF7BBFC034662
:1048E00083F00103DBB2002BF4D10120FDF766FD5C
:1048F0000346FB814FF000410120FDF7E9FC4FF436
:1049000000310120FDF7E4FC4FF080510120FDF75C
:10491000DFFCFB8918461037BD4680BD80B400AF70
:1049200000BFBD465DF8047B704780B500AFFCF763
:104930002BFD00224FF460310020FCF715FC002213
:104940004FF400710120FCF70FFC01224FF44031BD
:104950000120FCF709FC012244F220010020FCF7B1
:1049600003FC00BF80BD80B582B000AF034687ED79
:10497000000AFB71FB7997ED000A1846FBF7E0FE91
:1049800000BF0837BD4680BD80B582B000AF87ED5F
:10499000010AC7ED000AD7ED000A97ED010AFCF7FE
:1049A00017FE00BF0837BD4680BD80B586B000AF9A
:1049B000F860B9603B601346FB713B68002B02D086
:1049C0003B6800221A80012210210320FCF718FC0A
:1049D0000023FB75FA7DFB799A421BD20020FFF77A
:1049E00067FF03461946FB7DBA681344CAB21A70C2
:1049F0003B68002B0AD03B681A88FB7DB9680B44E2
:104A00001B789BB213449AB23B681A80FB7D01333A
:104A1000FB75DFE7002210210320FCF7F1FBFB7997
:104A20001BB218461837BD4680BD80B586B000AFB2
:104A3000F860B9601346FB71012210210320FCF7D6
:104A4000DFFB0023FB75FA7DFB799A420BD2FB7DDD
:104A5000BA6813441B789BB21846FFF729FFFB7D09
:104A60000133FB75EFE7002210210320FCF7C8FBA0
:104A7000FB791BB218461837BD4680BD80B483B0A1
:104A800000AF786039607B6800221A703B681A7941
:104A90007B685A713B681A787B685A703B689A78D1
:104AA0007B68DA703B685A787B689A703B68DA7882
:104AB0007B681A7100BF0C37BD465DF8047B7047F8
:104AC00080B582B000AF78600B46FB701346BB70B8
:104AD000BB78FA7801217868FDF76EFE0346184628
:104AE0000837BD4680BD80B582B000AF78607B6876
:104AF0009B6BAE221A707B689B6B0133C1221A70CC
:104B00007B689B6B02337A6892F840201A707B684E
:104B10009B6B03337A6892F841201A707B6803F12B
:104B200034007B68996B7B6893F841300433DBB2C7
:104B30001A46FFF77AFF034618460837BD4680BD80
:104B400080B400AF00BFBD465DF8047B704780B401
:104B500083B000AF78603960002318460C37BD463B
:104B60005DF8047B704780B582B000AF7860FFF7D6
:104B700098FE00BF0837BD4680BD80B5A4B000AF29
:104B8000FFF7B3FDFBF772FFFFF7C8FEFFF73FFE2D
:104B9000FFF747FEFFF798FDFFF7A0FDFFF756FE72
:104BA000FFF76BFEFFF7B6FDFFF7C6FDFFF7BDFE93
:104BB000FBF768FFFFF77CFDFFF780FDFFF71BFEAB
:104BC000FFF71FFEFFF797FDFFF79DFDFFF7ADFE17
:104BD000FBF758FF62B600BFFFF72AFEFFF72FFE74
:104BE0000A210120FFF7B2FD0346A7F88E303B1DD6
:104BF000184600F02CF83B1D4FF000411846FDF719
:104C00009FFFB7F88E30642219460120FFF7B1FDEF
:104C100007F14803391D4422184600F039F907F11D
:104C200048031846FDF79CFD07F14803184600F0BD
:104C300040F8B7F88E3019460120FFF7ADFD034666
:104C4000002BDED0FDF742FCFFF77AFFD9E780B5F5
:104C500082B000AF78607B6808337968184600F04E
:104C60003BF87B6814337968184600F044F87B6899
:104C700030337968184600F04DF84FF48270FEF733
:104C8000DFFC03461A467B689A637B689B6B1A1DA0
:104C90007B68DA637B680022DA807B68DA887B686D
:104CA0009A807B6800221A607B6818460837BD46E8
:104CB00080BD80B582B000AF78607B683433184621
:104CC000FFF751FF7B689B6B1846FEF7C1FC7B68C2
:104CD00018460837BD4680BD80B483B000AF786009
:104CE00039607B683A689A607B6818460C37BD4625
:104CF0005DF8047B704780B483B000AF78603960A2
:104D00007B683A689A617B6818460C37BD465DF847
:104D1000047B704780B483B000AF786039607B68F3
:104D20003A681A607B6818460C37BD465DF8047B0C
:104D3000704780B582B000AF78607B68002283F84E
:104D400041207B680E2283F840207868FFF7CBFE75
:104D50007868FDF70BFE0346002B0CBF01230023F0
:104D6000DBB2002B15D07B6893F840300F2B08D1B5
:104D70007B689A6B7B681A607B6893F841305BB202
:104D800009E07B6893F84030032B02D16FF00103F8
:104D900001E04FF0FF3318460837BD4680BD80B5AF
:104DA00082B000AF78607B68012283F841207B6885
:104DB000DB6B00221A707B680C2283F84020786835
:104DC000FFF791FE7868FDF7D1FD0346002B0CBF7D
:104DD00001230023DBB2002B13D07B6893F8403013
:104DE0000D2B0BD17B689B6B1A887B689A807B6844
:104DF0009B6B5A887B68DA80002304E04FF0FF3316
:104E000001E04FF0FF3318460837BD4680BD04204F
:104E10007146084202D0EFF3098001E0EFF3088009
:104E200081690A884BF6AB639A4200D0FEE70231F3
:104E3000816120210160704700BF80B500AFFDF7A0
:104E400015FFBFF34F8F00BF00BF80BD80B500AF1F
:104E5000FDF720FFBFF34F8F00BF00BF80BD80B5BF
:104E600000AFFDF72BFFBFF34F8F00BF00BF80BD2A
:104E700080B500AFFDF736FFBFF34F8F00BF00BF17
:104E800080BD80B400AF00BFBD465DF8047B7047B5
:104E90000A44914200F1FF3300D1704710B511F878
:104EA000014B03F8014F9142F9D110BD0244034672
:104EB000934200D1704703F8011BF9E79368013B67
:104EC000002B10B4936008DA9469A34201DB0A292D
:104ED00003D15DF8044BFEF7E7BE1368581C106061
:104EE000197008465DF8044B7047F8B506460F4642
:104EF0001446D518AC4201D1002007E014F8011B7C
:104F00003A463046FFF7DAFF431CF3D1F8BD2DE9EE
:104F1000F047164699468A680B69DDF8208093426F
:104F2000B8BF1346336091F8432007460C460AB1D8
:104F3000013333602368990642BF3368023333601C
:104F4000256815F0060506D104F1190AE3683268F0
:104F50009B1AAB4226DC94F84320131E226818BF2C
:104F6000012392062BD404F1430249463846C04738
:104F700001301ED02368E568326803F00603042B75
:104F800008BFAD1AA36822690CBF25EAE5750025A4
:104F90009342C4BF9B1AED1800261A34B5421AD1A9
:104FA000002008E00123524649463846C0470130F8
:104FB00003D14FF0FF30BDE8F0870135C6E7E118B7
:104FC0005A1C302081F84300224494F8451082F89E
:104FD00043100233C7E70123224649463846C047FB
:104FE0000130E6D00136D9E7084600F093B970B534
:104FF00068224D1E55430E4605F17401FEF77CFBF9
:10500000044640B10021C0E900160C30A06005F153
:105010006802FFF74BFF204670BD2DE9F8430646B6
:10502000884600F148040027D4E90195B9F1010947
:1050300005D52468002CF7D13846BDE8F883AB8944
:10504000012B07D9B5F90E30013303D0294630467C
:10505000C04707436835E9E770477047704770B548
:105060000E46B1F90E10002996B014461D4608DA16
:10507000B6F90C3000222A601A0610D44FF480636F
:105080000EE06A46FFF7C0F80028F1DB019A02F44F
:105090007042A2F500535A425A412A60EEE740237B
:1050A0000020236016B070BD10B50C46B1F90E108B
:1050B000FFF7DEF80028ABBF636DA3891B1823F44C
:1050C0008053ACBF6365A38110BD2DE9F0411F463D
:1050D0008B89DB0505460C46164605D5B1F90E1041
:1050E00002230022FFF7B2F8A389B4F90E1023F4CB
:1050F0008053A38132463B462846BDE8F041FFF786
:1051000061B810B50C46B1F90E10FFF79FF8431CBB
:10511000A38915BF606523F4805343F48053A381B2
:1051200018BFA38110BDB1F90E10FFF75DB8F8B537
:105130000446FEF75BFA132605460027304639463B
:10514000ABBE06462E602046F8BD431C01D1FFF7DA
:10515000EEBF704730B585B0CDE90101039206245A
:1051600001AD20462946ABBE04462046FFF7EDFFC1
:1051700005B030BD37B515460191FFF7FBF8019931
:10518000044638B9FEF732FA092303604FF0FF30C6
:1051900003B030BD00682A46FFF7DCFF431C1FBF89
:1051A0006368281A1B186360F2E7F7B50C461646C9
:1051B000FFF7E0F8054640B9FEF718FA0923036047
:1051C0004FF0FF34204603B0F0BD022E03D9FEF7A6
:1051D0000DFA1623F3E7012E12D14368E418F6D432
:1051E0002B680A26CDE900346F4630463946ABBEFF
:1051F00006463046FFF7A9FF0028E1DB6C60E1E7D7
:10520000022EEDD1036800930C266F4630463946D6
:10521000ABBE06463046FFF798FF431CD0D004448F
:10522000DEE7FFF7C2BF30B585B0CDE901010392DB
:10523000052401AD20462946ABBE04462046FFF7B3
:1052400084FF05B030BD37B515460191FFF792F8E0
:105250000199044638B9FEF7C9F9092303604FF0F4
:10526000FF3003B030BD00682A46FFF7DCFF031EA5
:10527000F5DB6268E81A02449D426260F1D10020C9
:1052800003B0BDE83040FFF752BF37B502240190AC
:1052900001AD20462946ABBE04462046FFF755FF28
:1052A00003B030BD70B50C46FFF764F8054630B961
:1052B000FEF79CF9092303604FF0FF3070BD63686F
:1052C00043F4005363604FF48063A3640C263046BC
:1052D0002946ABBE05462846FFF737FF431C1CBFD7
:1052E00020610020EAE738B50C460546002120463B
:1052F0005822FFF7DBFD21462846BDE83840FFF77E
:10530000D1BF30B51024002520462946ABBE044647
:10531000204630BD10B50446FFF7F3FF24B100234B
:10532000C4E901332060E36010BD38B5FFF722F80F
:105330000924054640B120462946ABBE0446204616
:10534000BDE83840FFF701BFFEF750F904604FF0A9
:10535000FF3038BD2825642C20256429200000005A
:105360002825642C202564290A0000002D2D2D2DD0
:105370002D2D2D2D2D2D2D2D2D2D2D2D2D2D2D2D5D
:105380002D2D2D2D2D2D2D2D0A00FFFF6572726FF5
:10539000723A20636865636B73756D0A00FFFFFFE7
:1053A0006572726F723A206E6F20726573706F6EE5
:1053B00073650A000C0000200000000000000000DF
:1053C00000000000000000000000000000000000DD
:1053D00000000000000000000000000000000000CD
:1053E00000000000000000000000000000000000BD
:1053F00000000000000000000000000000000000AD
:10540000000000000000000000000000000000009C
:105410000000000000000000232D302B2000686CED
:105420004C006566674546470030313233343536C7
:105430003738394142434445460030313233343500
:1054400036373839616263646566003A747400FF08
:10545000F8B500BFF8BC08BC9E467047FFFFFFFFD1
:105460002D440000F8B500BFF8BC08BC9E4670474C
:1054700004010020080100200C00002000000000B2
:10548000D8530000F8530000B8530000000000009B
:10549000000000000000000000000000000000000C
:1054A00000000000000000000000000000000000FC
:1054B00000000000000000000000000000000000EC
:1054C00000000000000000000000000000000000DC
:1054D000000000000000000000000000FFFFFFFFD0
:04000003000001D523
:00000001FF
