:1000000000000320D5010000550200000B5B00003A
:10001000590200005B0200005D02000000000000C9
:100020000000000000000000000000005F0200006F
:100030006102000000000000630200006502000091
:10004000B14F0000B94F0000C14F0000C94F000080
:10005000D14F0000D94F0000E14F0000E94F0000F0
:10006000F14F0000F94F000001500000095000005E
:1000700011500000195000002150000029500000CC
:10008000315000003950000041500000495000003C
:1000900051500000595000006150000069500000AC
:1000A000715000007950000081500000895000001C
:1000B0009150000099500000A1500000A95000008C
:1000C000B1500000B9500000C1500000C9500000FC
:1000D000D1500000212A0000D9500000E15000005A
:1000E000E9500000F1500000F9500000B104000098
:1000F0000151000009510000115100001951000088
:10010000852100002D220000E52200009D23000033
:1001100021510000295100003151000039510000E7
:100120004151000049510000515100005951000057
:10013000B90F000061510000ED0F0000695100008F
:100140007151000079510000812A000081510000A6
:10015000895100009151000099510000A151000007
:10016000A9510000B1510000B9510000C151000077
:10017000C9510000D1510000D9510000E1510000E7
:10018000E9510000F1510000F95100000152000056
:1001900009520000115200002861000000000020F8
:1001A00070000000286100000000FF1F0000000038
:1001B0002861000000000014000000007000002012
:1001C000080200000000FF1F0000000000000014F3
:1001D0000000000072B603F017F90F4B0F4A93426C
:1001E00008D203F10C049A685968186800F01AF8EC
:1001F0002346F3E70A4A934207D21C46596854F84B
:10020000080B00F01EF82346F4E703F09BFD62B6EE
:1002100002F0A8FFFEE700BF98010000BC0100004B
:10022000D4010000002393420AD210B450F8044BCA
:1002300041F8044B04339342F8D35DF8044B704704
:100240007047002303E0002240F8042B04338B4264
:10025000F9D37047FEE7FEE7FEE7FEE7FEE7FEE7BD
:10026000FEE7FEE7FEE7FEE7FFFFFFFFFFFFFFFF02
:10027000FFFFFFFFFFFFFFFFFFFFFFFFFFFFFFFF8E
:10028000FFFFFFFFFFFFFFFFFFFFFFFFFFFFFFFF7E
:10029000FFFFFFFFFFFFFFFFFFFFFFFFFFFFFFFF6E
:1002A000FFFFFFFFFFFFFFFFFFFFFFFFFFFFFFFF5E
:1002B000FFFFFFFFFFFFFFFFFFFFFFFFFFFFFFFF4E
:1002C000FFFFFFFFFFFFFFFFFFFFFFFFFFFFFFFF3E
:1002D000FFFFFFFFFFFFFFFFFFFFFFFFFFFFFFFF2E
:1002E000FFFFFFFFFFFFFFFFFFFFFFFFFFFFFFFF1E
:1002F000FFFFFFFFFFFFFFFFFFFFFFFFFFFFFFFF0E
:10030000FFFFFFFFFFFFFFFFFFFFFFFFFFFFFFFFFD
:10031000FFFFFFFFFFFFFFFFFFFFFFFFFFFFFFFFED
:10032000FFFFFFFFFFFFFFFFFFFFFFFFFFFFFFFFDD
:10033000FFFFFFFFFFFFFFFFFFFFFFFFFFFFFFFFCD
:10034000FFFFFFFFFFFFFFFFFFFFFFFFFFFFFFFFBD
:10035000FFFFFFFFFFFFFFFFFFFFFFFFFFFFFFFFAD
:10036000FFFFFFFFFFFFFFFFFFFFFFFFFFFFFFFF9D
:10037000FFFFFFFFFFFFFFFFFFFFFFFFFFFFFFFF8D
:10038000FFFFFFFFFFFFFFFFFFFFFFFFFFFFFFFF7D
:10039000FFFFFFFFFFFFFFFFFFFFFFFFFFFFFFFF6D
:1003A000FFFFFFFFFFFFFFFFFFFFFFFFFFFFFFFF5D
:1003B000FFFFFFFFFFFFFFFFFFFFFFFFFFFFFFFF4D
:1003C000FFFFFFFFFFFFFFFFFFFFFFFFFFFFFFFF3D
:1003D000FFFFFFFFFFFFFFFFFFFFFFFFFFFFFFFF2D
:1003E000FFFFFFFFFFFFFFFFFFFFFFFFFFFFFFFF1D
:1003F000FFFFFFFFFFFFFFFFFFFFFFFFFFFFFFFF0D
:10040000FFFFFFFFFFFFFFFFFFFFFFFFFEFFFFFFFD
:1004100001F0FF01102A2BDB10F0070F08D010F8B5
:10042000013B013A8B422DD010F0070F42B3F6D1B9
:10043000F0B441EA012141EA014122F007047FF0D2
:1004400000070023F0E80256083C85EA010586EA29
:10045000010685FA47F5A3FA87F586FA47F6A5FA65
:1004600087F68EB9EED1F0BC01F0FF0102F0070271
:1004700032B110F8013B013A83EA010313B1F8D11C
:100480000020704701387047002D06BF35460338FD
:10049000073815F0010F07D1013015F4807F02BF36
:1004A000013015F4C03F0130F0BC0138704700BF87
:1004B000B0B582B000AF944B4FF4FA62C3F830216C
:1004C000924B1B6803F08003802B0FD18F4B1B686E
:1004D0008E4A23F0800313608D4B1B6801338C4AD6
:1004E00013608C4B1B6801338A4A1360874BDB68AF
:1004F00003F08003802B7CD1844BDB68834A23F09C
:100500008003D360814B1B697B60814B1B68002B90
:100510002FD07F4B1B68184603F0D6F878A3D3E999
:10052000002303F04BF902460B4614461D467A4B56
:100530001B88184603F0D8F802460B462046294689
:1005400002F084FF02460B4614461D46786803F00D
:10055000BBF802460B462046294602F079FF0246C8
:100560000B461046194603F083FB03466B4A1360A3
:100570000BE0694B1B881A467B689B1A07EE903A82
:10058000F8EE677A654BC3ED007A644BD3ED007AE1
:10059000F5EEC07AF1EE10FA12DD604BD3ED007A81
:1005A000DFED5F6A86EEA77AF1EE006AC7EE267A83
:1005B0009FED5C7A67EE877A5B4BC3ED007A03E0D0
:1005C000594B4FF000021A60584B1B6903F020038F
:1005D000002B07D1544BD3ED007AF1EE677A524BE2
:1005E000C3ED007A7B689AB24B4B1A80484B0022CD
:1005F0001A60464B5B6903F08003802B7CD1434B30
:100600005B69424A23F080035361404B9B697B60E6
:10061000404B1B68002B2FD03E4B1B68184603F045
:1006200053F837A3D3E9002303F0C8F802460B467A
:1006300014461D463E4B1B88184603F055F80246EB
:100640000B462046294602F001FF02460B4614469F
:100650001D46786803F038F802460B4620462946C6
:1006600002F0F6FE02460B461046194603F000FB68
:100670000346304A13600BE02D4B1B881A467B68FB
:100680009B1A07EE903AF8EE677A2A4BC3ED007A90
:10069000284BD3ED007AF5EEC07AF1EE10FA12DDB8
:1006A000244BD3ED007ADFED1E6A86EEA77AF1EED9
:1006B000006AC7EE267A9FED1B7A67EE877A1E4B9B
:1006C000C3ED007A03E01C4B4FF000021A60174B99
:1006D0001B6903F48043002B07D1174BD3ED007A3D
:1006E000F1EE677A144BC3ED007A7B689AB2104B37
:1006F0001A80084B00221A6000BF0837BD46B0BD03
:1007000000000000E0FFEF40007003400090034055
:10071000800000208400002068020020700000207B
:1007200020BCBE4A000070427800002000F00F405C
:100730006A020020740000207C000020FFFFFFFF01
:1007400080B584B000AF034687ED000AFB71D7ED9A
:10075000007AB7EE007AF4EEC77AF1EE10FA03DD14
:100760004FF07E533B600AE0D7ED007ABFEE007A8F
:10077000F4EEC77AF1EE10FA01D52D4B3B603868E4
:1007800002F0C4FF4FF000022A4B02F061FE024665
:100790000B46104619464FF000024FF0804303F01D
:1007A00037F902460B46104619461FA3D3E900232A
:1007B00003F004F802460B46104619461AA3D3E983
:1007C000002302F045FE02460B461046194603F090
:1007D0004FFA0346FB60FB79012B10D0164B9B6848
:1007E00007EE903AB8EE677AD7ED037A67EE277A8C
:1007F000114BFCEEE77A17EE902A1A6110E00E4BCF
:100800009B6807EE903AB8EE677AD7ED037A67EE09
:10081000277A094BFCEEE77A17EE902A9A6100BF1F
:1008200000BF1037BD4680BD000000A09999B93FB8
:10083000000080BF0000F03F00A00340FFFFFFFF6B
:1008400080B584B000AF03460A46FB711346BB80F7
:100850000023FB73684B03F58053DB6B664A43F45C
:10086000000302F58052D363644B1B68634A43F074
:1008700001031360FB79002B29D1BB88184602F0D5
:1008800033FF5BA3D3E9002303F0C2F802460B4613
:100890001046194603F0CCF90346594A1360574AEB
:1008A000574B1B68C2F80031544BD3F80831534AF8
:1008B00043F00203C2F80831312001F0ADFA3120D3
:1008C00001F08CFA0F21312001F0C4FA85E0FB79A8
:1008D000012B29D1BB88184602F006FF44A3D3E9B7
:1008E000002303F095F802460B461046194603F024
:1008F0009FF90346424A1360404A414B1B68C2F8C5
:1009000010313E4BD3F818313C4A43F00203C2F891
:100910001831312001F080FA312001F05FFA0F2107
:10092000312001F097FA58E0FB79022B29D1BB88DE
:10093000184602F0D9FE2EA3D3E9002303F068F88D
:1009400002460B461046194603F072F903462C4A3C
:1009500013602A4A2A4B1B68C2F82031274BD3F870
:100960002831264A43F00203C2F82831322001F030
:1009700053FA322001F032FA0F21322001F06AFAE4
:100980002BE0FB79032B28D1BB88184602F0ACFE84
:1009900017A3D3E9002303F03BF802460B461046A9
:1009A000194603F045F90346154A1360134A144BE0
:1009B0001B68C2F83031114BD3F838310F4A43F07D
:1009C0000203C2F83831332001F026FA332001F057
:1009D00005FA0F21332001F03DFA084B1B68074A46
:1009E00023F00203136000BF1037BD4680BD00BF77
:1009F000F168E388B5F8F43E0070044000700340ED
:100A000000010020FFFFFFFFB0B582B000AF7860AB
:100A10003960386802F068FE04460D467B6803FBC7
:100A200003F23B6803FB03F31344184602F05CFE39
:100A300002460B4643EC102B04F038F853EC102B15
:100A40002046294602F0E4FF02460B4643EC172BF2
:100A5000B0EE470AF0EE670A03F0F4FF51EC100B1A
:100A600016A3D3E9002302F0D3FF02460B4610463B
:100A700019464FF00002104B02F0A0FE02460B4652
:100A800014461D46786804F04EFD0346184602F0F1
:100A90002BFE02460B462046294602F08FFE0246F8
:100AA0000B461046194603F09BF8034618460837D4
:100AB000BD46B0BDAFF3008000806640441741548E
:100AC000FB210940FFFFFFFF2DE9F84F55EC104BCC
:100AD000CD4925F000438B420DDD03F1404303F582
:100AE0008013234340F0BD80002D40F3C9809FED6B
:100AF000AA0BBDE8F88FC5498B4207DCC44A934274
:100B000000F3C2809FEDA60BBDE8F88F002DC0F268
:100B1000858110EE102A2B46BE49002002F096FC7B
:100B2000BD4B002202F04AFE04460D4645EC104B38
:100B300003F0F0FF9CA3D3E900232046294659EC9B
:100B4000108B02F03BFE9AA3D3E9002302F080FC55
:100B500022462B4602F032FE97A3D3E9002302F08F
:100B600075FC22462B4602F029FE95A3D3E900230B
:100B700002F06EFC22462B4602F020FE92A3D3E93F
:100B8000002302F063FC22462B4602F017FE90A3DE
:100B9000D3E9002302F05CFC22462B4602F00EFE55
:100BA0008DA3D3E9002382468B462046294602F0D6
:100BB00005FE8BA3D3E9002302F048FC22462B4616
:100BC00002F0FCFD88A3D3E9002302F041FC224699
:100BD0002B4602F0F3FD86A3D3E9002302F036FC96
:100BE00022462B4602F0EAFD8A4B002202F030FC3E
:100BF00002460B465046594602F00AFF42464B4613
:100C000002F0DCFD002682468B4632464B463046DB
:100C1000494602F0D3FD02460B462046294602F023
:100C200015FC324604460D464B464046494602F006
:100C30000FFC02460B462046294602F0E9FE02461A
:100C40000B465046594602F003FC32464B4602F032
:100C5000FFFB02460B4602F0FBFB41EC100BBDE82C
:100C6000F88F10EE102A2B462046294602F0EEFBA4
:100C700002460B4602F0CCFE41EC100BBDE8F88FAB
:100C80009FED5D0BBDE8F88F10EE102A10EE100AF4
:100C90002B46294602F092FD43A3D3E900230646E2
:100CA0000F4602F08BFD42A3D3E9002302F0D0FBF4
:100CB00032463B4602F082FD3FA3D3E9002302F017
:100CC000C5FB32463B4602F079FD3DA3D3E9002344
:100CD00002F0BEFB32463B4602F070FD3AA3D3E978
:100CE000002302F0B3FB32463B4602F067FD38A317
:100CF000D3E9002302F0ACFB32463B4602F05EFD36
:100D000035A3D3E90023804689463046394602F0B0
:100D100055FD33A3D3E9002302F098FB32463B464E
:100D200002F04CFD30A3D3E9002302F091FB3246E0
:100D30003B4602F043FD2EA3D3E9002302F086FBDD
:100D400032463B4602F03AFD324B002202F080FB75
:100D500002460B464046494602F05AFE22462B46C2
:100D600002F02CFD02460B4625A1D1E9000102F05C
:100D70006DFB02460B462046294602F067FB024601
:100D80000B4607A1D1E9000102F060FB41EC100B1A
:100D9000BDE8F88FAFF30080000000000000000005
:100DA000182D4454FB21F93F09F7FD0DE13D023FA9
:100DB00088B20175E0EF493F3B8F68B52882A43FB8
:100DC0005544880E55C1C93F7D6FEB0312D6D43F01
:100DD000555555555555C53F82922EB1C5B8B33FAF
:100DE00059018D1B6C06E63FC88A599CE52A0040D4
:100DF0004B2D8A1C273A0340182D4454FB210940EF
:100E0000075C143326A6913CFFFFEF3FFFFFDF3F57
:100E10000000603C0000F03F0000E03F10EE100AD0
:100E20005F4B0022294602F013FB5E4B002202F0CA
:100E3000C5FC43A3D3E9002304460D4602F0BEFCE3
:100E400041A3D3E9002302F003FB22462B4602F024
:100E5000B5FC3FA3D3E9002302F0F8FA22462B4663
:100E600002F0ACFC3CA3D3E9002302F0F1FA2246E5
:100E70002B4602F0A3FC3AA3D3E9002302F0E6FAE2
:100E800022462B4602F09AFC37A3D3E9002302F056
:100E9000DFFA22462B4602F091FC45EC104B8046CF
:100EA000894603F037FE32A3D3E9002320462946C2
:100EB00057EC106B02F082FC2FA3D3E9002302F061
:100EC000C5FA22462B4602F079FC2DA3D3E9002374
:100ED00002F0BEFA22462B4602F070FC2AA3D3E9A8
:100EE000002302F0B3FA22462B4602F067FC2C4B9B
:100EF000002202F0ADFA02460B464046494602F097
:100F000087FD32463B4602F059FC21A3D3E900237A
:100F100002F09CFA32463B4602F09AFA02460B4631
:100F200002F096FA02460B461BA1D1E9000102F03D
:100F30008DFA41EC100BBDE8F88F00BFAFF30080D5
:100F400009F7FD0DE13D023F88B20175E0EF493F31
:100F50003B8F68B52882A43F5544880E55C1C93FD0
:100F60007D6FEB0312D6D43F555555555555C53FAA
:100F700082922EB1C5B8B33F59018D1B6C06E63F76
:100F8000C88A599CE52A00404B2D8A1C273A034009
:100F9000075C143326A6913C182D4454FB210940CC
:100FA0000000F03F0000E03F9FED010B704700BFE5
:100FB000000000000000F87F80B400AF094B9B6880
:100FC000084A43F080739360064BDB68054A43F0A0
:100FD0008073D360044B01221A7000BFBD465DF8D8
:100FE000047B704700A004406C02002080B400AF76
:100FF000094B1B68084A43F080731360064B5B681B
:10100000054A43F080735360044B01221A7000BFFD
:10101000BD465DF8047B704700C004406D020020AF
:1010200080B500AF01220349022000F0B3FB00BFEE
:1010300080BD00BF001E030080B584B000AF034632
:10104000FB710023FB73FB79032B2BD801A252F811
:1010500023F000BF6510000075100000851000002F
:10106000951000004FF40071022000F03DFC034693
:10107000FB7317E04FF48061022000F035FC03465B
:10108000FB730FE04FF40061022000F02DFC0346DB
:10109000FB7307E04FF48051022000F025FC03466B
:1010A000FB7300BFFB7B18461037BD4680BD00BFF9
:1010B00080B500AF9FED110A002004F0FBF99FED11
:1010C0000F0A012004F0F6F9DFED0C0A9FED0B0A80
:1010D00004F001FA00224FF40031002000F0A6FBDA
:1010E00001224FF40041002000F0A0FB01224FF448
:1010F0008031002000F09AFB00BF80BD000000009E
:1011000080B483B000AF0346FB7197F90730002B22
:1011100012DBFB7903F01F020A4997F907305B09DC
:10112000012000FA02F2203341F82320BFF34F8F51
:1011300000BFBFF36F8F00BF00BF0C37BD465DF827
:10114000047B704700E100E080B500AF4920FFF765
:10115000D7FF0D4B00229A600B4B9B680A4A43F065
:101160000C039360084B1722DA60074B00221A62C7
:10117000054B04225A62044B00221A60024B0322E0
:101180001A6000BF80BD00BF00B00B4080B483B0C8
:1011900000AF0023BB80534B9B68524A23F063038C
:1011A0009360504B9B684F4A43F0750393604D4BDF
:1011B0001B6A4C4A23F0400313624A4B5B6A494A5C
:1011C00023F00B035362474B5B6A464A43F0070325
:1011D0005362444B5B6A434A43F08003536200BF4F
:1011E000404B1B6803F08003002BF9D03D4B5B6A3A
:1011F00003F04003402B08D10023FB71394B5B6A9D
:10120000384A23F08003536265E00023BB80354BEE
:10121000DB6CBB80334B9B6C9AB2BB881344BB80A6
:10122000304B5B6C9AB2BB881344BB802D4B1B6C5C
:101230009AB2BB881344BB802A4BDB6B9AB2BB8843
:101240001344BB80274B9B6B9AB2BB881344BB8073
:10125000BB885B08BB80BB886FEA43436FEA53439C
:10126000BB80204ABB88D3620023BB801D4BDB6E52
:10127000BB801C4B9B6E9AB2BB881344BB80194B3E
:101280005B6E9AB2BB881344BB80164B1B6E9AB23E
:10129000BB881344BB80134BDB6D9AB2BB881344ED
:1012A000BB80104B9B6D9AB2BB881344BB80BB883C
:1012B0005B08BB80BB886FEA43436FEA5343BB8044
:1012C000084ABB881363074B5B6A064A23F0800316
:1012D00053620123FB71FB7918460C37BD465DF85C
:1012E000047B704700B00B4080B400AF324B2C221F
:1012F0005A70314B98221A7000BF2F4B9B79DBB28A
:1013000003F00203002BF8D000BF2B4B9B79DBB21C
:1013100003F01003002BF8D100BF274B9B79DBB201
:101320009B0803F00303022BF7D1234B03221A710E
:10133000214B5A225A7100BF1F4B9B79DBB203F03D
:101340002003002BF8D000BF1B4B9B79DBB203F0CE
:101350004003002BF8D0194B03F580531A46184B65
:101360005364154B1B78DBB2134A03F03F03DBB227
:10137000137000BF104B9B79DBB29B0803F0030393
:10138000032BF7D10D4B03F580535B680B4A43F4F5
:10139000805302F580525360084B03F580531B6C59
:1013A000064A43F0010302F58052136400BFBD46B4
:1013B0005DF8047B704700BF0040064000700440A9
:1013C0000000130180B400AF464B03F580539B6BC4
:1013D000444A43F4785302F580529363424B4FF4EE
:1013E000A072DA63404B4FF4A0721A643E4B4FF484
:1013F000A0725A643D4B4FF4A0725A623C4B4FF4BA
:1014000080721A643A4B4FF480725A64384B4FF42E
:1014100080725A62364B4FF480729A62344B4FF4AA
:101420008072DA62324B4FF480721A632F4B40F2B3
:1014300043329A622D4B40F24332DA622C4B40F237
:1014400043329A632A4B40F24332DA63274B4FF41C
:1014500040729A64254B4FF44072DA64234B4FF488
:10146000A0721A65214B4FF4A0725A651F4B4FF4BE
:10147000A0729A651D4B4FF4A072DA651B4B0022D7
:101480001A601A4B00225A60194B00221A62174B3D
:101490004FF4A0721A64154B4FF4A0725A64144BA7
:1014A0004FF480725A63104B4FF4A0725A610E4B86
:1014B0004FF4A0729A630F4B5B690E4A43F40053DA
:1014C00053610D4B5B680C4A43F400335360094B86
:1014D0005B68084A43F40053536000BFBD465DF8A3
:1014E000047B7047007004400090044000A004405A
:1014F00000B0044080F00F4000F00F4080B400AF17
:10150000254B03F580539B6A234A43F4806302F51D
:1015100080529362204B03F58053DB6A1E4A43F4EA
:10152000805302F58052D3621B4B03F580531B6B33
:10153000194A43F0106302F580521363164B03F50A
:101540008053DB6B144A43F0806302F58052D3630F
:10155000114B03F580535B6B0F4A43F4015302F5C3
:10156000805253630C4B03F58053DA6B0A490B4BE3
:10157000134301F58052D363074B03F580531B6C73
:10158000054A43F0060302F58052136400BFBD46CE
:101590005DF8047B704700BF007004400010808B32
:1015A00080B483B000AF104B7B600F4B5B78DBB235
:1015B0000D4A63F07D03DBB253707B681B7843F008
:1015C0003F03DAB27B681A7000BF074B5B78DBB26F
:1015D00003F00403002BF8D000BF00BF0C37BD465A
:1015E0005DF8047B704700BF0040074080B500AF46
:1015F000FFF784FF064B1B68054A23F001031360C5
:10160000FFF772FEFFF7DEFEFFF7CAFF00BF80BDE7
:1016100000D0004080B582B000AF03460A46FB719F
:101620001346BB712B4B03F58053DB6A294A43F405
:10163000805302F58052D362BB79002B02D0012B7C
:1016400032D042E0FB79002B15D1002000F048F8A1
:10165000214B93F82130DBB21F4A63F01F03DBB24A
:1016600082F821301C4B002283F822201A4B0F22D3
:1016700083F8232026E0FB79012B23D1012000F001
:101680002FF8164B93F82130DBB2144A63F05F0356
:10169000DBB282F82130114B002283F822200F4B5D
:1016A0000F2283F823200DE0FB79002B03D10020CB
:1016B00000F016F808E0FB79012B05D1012000F0BD
:1016C0000FF801E000BF00E000BF00BF0837BD46D3
:1016D00080BD00BF0070044000C00C4000D00C4032
:1016E00080B485B000AF0346FB71FB79002B02D0BC
:1016F000012B22D043E0254BBB600023FB7308E0A5
:10170000BB6800221A80FB7B0133FB73BB6802338A
:10171000BB60FB7B0F2BF3D91C4B022283F82020EC
:101720001A4B002283F82120184B002283F8222034
:10173000164B0F2283F8232021E0154BBB600023BA
:10174000FB7308E0BB6800221A80FB7B0133FB734C
:10175000BB680233BB60FB7B0F2BF3D90C4B02221F
:1017600083F820200A4B002283F82120084B002216
:1017700083F82220064B0F2283F8232000BF00BFEE
:101780001437BD465DF8047B704700BF00C00C40B5
:1017900000D00C4080B485B000AF03463960FB71C7
:1017A0001346BB71FB79042B1BD801A252F823F01E
:1017B000C5170000CB170000D1170000D717000095
:1017C000DD170000144BFB600BE0144BFB6008E0DE
:1017D000134BFB6005E0134BFB6002E0124BFB6018
:1017E00000BFBB79002B06D1FB681A683B681A431F
:1017F000FB681A6009E0BB79012B06D1FB681A6807
:101800003B68DB431A40FB681A6000BF1437BD46D3
:101810005DF8047B704700BF14F00F4054F00F4098
:1018200094F00F40D4F00F4014F10F4080B485B015
:1018300000AF03463960FB711346BB71FB79042B83
:1018400025D801A252F823F05D18000067180000A7
:10185000711800007B18000085180000184BFB6011
:10186000184BBB6013E0184BFB60184BBB600EE0DD
:10187000174BFB60174BBB6009E0174BFB60174B26
:10188000BB6004E0164BFB60164BBB6000BFBB792E
:10189000002B06D1FB681A683B681A43FB681A6084
:1018A00008E0BB79012B05D1BB681A683B681A4375
:1018B000BB681A6000BF1437BD465DF8047B7047F3
:1018C00000F00F4008F00F4040F00F4048F00F408C
:1018D00080F00F4088F00F40C0F00F40C8F00F407C
:1018E00000F10F4008F10F4080B485B000AF03460F
:1018F0003960FB710023FB72FB79042B1BD801A21A
:1019000052F823F0191900001F19000025190000D2
:101910002B190000311900000F4BFB600BE00F4B3F
:10192000FB6008E00E4BFB6005E00E4BFB6002E045
:101930000D4BFB6000BFFB681A683B6813403A68B8
:101940009A420CBF01230023FB72FB7A184614371E
:10195000BD465DF8047B704710F00F4050F00F401B
:1019600090F00F40D0F00F4010F10F4080B483B0E2
:1019700000AF0346FB7197F90730002B0BDBFB79B7
:1019800003F01F02074997F907305B09012000FAAD
:1019900002F241F8232000BF0C37BD465DF8047BFE
:1019A000704700BF00E100E080B483B000AF0346A1
:1019B000FB7197F90730002B0CDBFB7903F01F025A
:1019C000074997F907305B09012000FA02F26033FA
:1019D00041F8232000BF0C37BD465DF8047B7047FB
:1019E00000E100E080B483B000AF03463960FB71D2
:1019F00097F90730002B0ADB3B68DAB20C4997F9FC
:101A000007301201D2B20B4483F800230AE03B688E
:101A1000DAB20849FB7903F00F03043B1201D2B29A
:101A20000B441A7600BF0C37BD465DF8047B704747
:101A300000E100E000ED00E080B500AF894B03F568
:101A40008053DB6B874A43F0807302F58052D36387
:101A5000854B4FF480625A60834B4FF480629A60EA
:101A6000814B4FF48062DA607F4B4FF480621A61E1
:101A70007E4B5B6D7D4A43F0040353657B4B5B6D8E
:101A80007A4A23F001035365784BD3F88030774AC4
:101A900023F00103C2F88030744B00225A60734B6C
:101AA00040F6C4129A60714B0022DA646F4B002238
:101AB000DA606E4BDB686D4A43F02803D3606B4BF2
:101AC00000225A61694B5B69684A43F028035361FD
:101AD000664B0022DA61654BDB69644A43F02803F8
:101AE000D361624B00225A62604B5B6A5F4A43F0EB
:101AF000280353625D4B00221A605C4B00221A617E
:101B00005A4B00229A61594B00221A62574B00220D
:101B10009A62564B1B68554A43F008031360534BB7
:101B2000D3F89830514A43F40073C2F898304D4BC3
:101B300003F58053DB6B4B4A43F0007302F5805290
:101B4000D3634B4B4FF450721A63494B4FF45072AE
:101B50005A63484B5B6D474A43F004035365454B5A
:101B60005B6D444A23F001035365424B00225A60E7
:101B7000404B4FF6FF729A603E4B0022DA643D4BB9
:101B80000022DA603B4BDB683A4A43F04403D360FF
:101B9000384B00225A61374B5B69364A43F04403A5
:101BA0005361344B4B221A602B20FFF7FDFE2B2094
:101BB000FFF7DCFE01212B20FFF714FF2E4B5B6D9E
:101BC0002D4A43F0040353652B4B5B6D2A4A23F0E7
:101BD00001035365284BD3F88030274A23F00103D3
:101BE000C2F88030244B00225A60234B40F64272E8
:101BF0009A60214B0022DA641F4B0022DA601E4BF0
:101C0000DB681D4A43F02803D3601B4B00225A6156
:101C1000194B5B69184A43F028035361164B0022A5
:101C20001A60154B9B68144A1449A1FB0313DB0887
:101C30001361114B9B68104A1049A1FB0313DB0889
:101C400093610D4B1B680C4A43F00F0313600A4B62
:101C5000D3F89830084A43F40073C2F8983000BFB4
:101C600080BD00BF0070044000B00440008003400D
:101C7000009004400090034000A00340CDCCCCCCA9
:101C800080B483B000AF87ED010AC7ED000AD7ED3D
:101C9000017AB7EE007AF4EEC77AF1EE10FA03DDBE
:101CA0004FF07E537B600AE0D7ED017ABFEE007AF9
:101CB000F4EEC77AF1EE10FA01D5464B7B60D7ED12
:101CC000007AB7EE007AF4EEC77AF1EE10FA03DD8F
:101CD0004FF07E533B600AE0D7ED007ABFEE007A0A
:101CE000F4EEC77AF1EE10FA01D53A4B3B60D7ED2E
:101CF000017AF5EEC07AF1EE10FA14DD364B9B68EE
:101D000007EE903AB8EE677AD7ED017A67EE277A58
:101D1000FCEEE77A17EE903A9AB22F4B1A612E4BEF
:101D200000229A6219E0D7ED017AF1EE677AC7EDE9
:101D3000017A294B9B6807EE903AB8EE677AD7EDA7
:101D4000017A67EE277AFCEEE77A17EE903A9AB2BC
:101D5000214B9A62204B00221A61D7ED007AF5EEF2
:101D6000C07AF1EE10FA14DD1B4B9B6807EE903A37
:101D7000B8EE677AD7ED007A67EE277AFCEEE77A5D
:101D800017EE903A9AB2144B1A62134B00229A61E2
:101D900019E0D7ED007AF1EE677AC7ED007A0E4BC5
:101DA0009B6807EE903AB8EE677AD7ED007A67EE57
:101DB000277AFCEEE77A17EE903A9AB2064B9A61D0
:101DC000054B00221A6200BF0C37BD465DF8047B4C
:101DD000704700BF000080BF0080034080B483B024
:101DE00000AF0346FB7197F90730002B0BDBFB7943
:101DF00003F01F02074997F907305B09012000FA39
:101E000002F241F8232000BF0C37BD465DF8047B89
:101E1000704700BF00E100E080B483B000AF03462C
:101E2000FB7197F90730002B0CDBFB7903F01F02E5
:101E3000074997F907305B09012000FA02F2603385
:101E400041F8232000BF0C37BD465DF8047B704786
:101E500000E100E080B483B000AF03463960FB715D
:101E600097F90730002B0ADB3B68DAB20C4997F987
:101E700007301201D2B20B4483F800230AE03B681A
:101E8000DAB20849FB7903F00F03043B1201D2B226
:101E90000B441A7600BF0C37BD465DF8047B7047D3
:101EA00000E100E000ED00E080B483B000AF034645
:101EB000FB71FB79002B08D1184BD3F80831174A76
:101EC00043F00103C2F8083122E0FB79012B08D16D
:101ED000124BD3F81831114A43F00103C2F81831FC
:101EE00016E0FB79022B08D10C4BD3F828310B4AB2
:101EF00043F00103C2F828310AE0FB79032B07D134
:101F0000064BD3F83831054A43F00103C2F83831A3
:101F100000BF0C37BD465DF8047B7047007003407E
:101F200080B485B000AF0346FB710023FB81002322
:101F3000FB8125E0FA79F989164813469B00134482
:101F40005B000B449B0003440022DA70FA79F989A4
:101F5000104813469B0013445B000B44002220F8FA
:101F60002320FA79F9890B4813469B0013445B0040
:101F70000B449B00034401229A70FB890133FB81CF
:101F8000FB89092BD6D900BF00BF1437BD465DF8C9
:101F9000047B70478800002080B485B000AF034602
:101FA0000A46FB711346BB800023FB810023BB81E3
:101FB0000023FB810023BB8104E0BB890133BB818B
:101FC000BB89FB81BB89092B0FD8FA79B9892A48CB
:101FD00013469B0013445B000B449B0003449B7817
:101FE00083F00103DBB2002BE7D1BB890A2B14D1AC
:101FF000FA79BB89591E204813469B0013445B00A5
:102000000B449B0003449B7883F00103DBB2002B5D
:1020100003D04FF6FF73FB8125E0FA79B7F90E1074
:10202000154813469B0013445B000B449B0003447C
:1020300000229A70FA79B7F90E100F4813469B00E8
:1020400013445B000B44BA8820F82320FA79B7F9CF
:102050000E10094813469B0013445B000B449B0081
:1020600003440022DA70B7F90E3018461437BD4623
:102070005DF8047B704700BF8800002080B483B007
:1020800000AF03460A46FB711346BB80FA79B98854
:10209000074813469B0013445B000B449B0003441A
:1020A000DB7818460C37BD465DF8047B704700BFEF
:1020B0008800002080B483B000AF03460A46FB715D
:1020C0001346BB80FA79B988134813469B00134422
:1020D0005B000B449B0003440022DA70FA79B98854
:1020E0000D4813469B0013445B000B44002220F86C
:1020F0002320FA79B988084813469B0013445B00F3
:102100000B449B00034401229A7000BF0C37BD466C
:102110005DF8047B704700BF8800002080B483B066
:1021200000AF0346FB710B46BB8013467B80FA79F8
:10213000B988134813469B0013445B000B449B0073
:1021400003440022DA70FA79B9880D4813469B00DF
:1021500013445B000B447A8820F82320FA79B9886D
:10216000074813469B0013445B000B449B00034449
:1021700000229A7000BF0C37BD465DF8047B7047A3
:102180008800002080B483B000AF0023FB80254B83
:10219000D3F80C31234A43F00103C2F80C31214B30
:1021A000D3F804313B600023FB8031E0FB881E4AFA
:1021B0009B0013449B7883F00103DBB2002B0ED00D
:1021C000FB88194A32F82330002B08D0FB88164AC6
:1021D00032F82320013A91B2134A22F82310FB88E7
:1021E000114A9B0013449B7883F00103DBB2002B60
:1021F0000BD0FB880C4A32F82330002B05D1FB882A
:10220000094A9B0013440122DA70FB880133FB80EA
:10221000FB88092BCAD900BF00BF0C37BD465DF84B
:10222000047B7047007003408800002080B483B0B6
:1022300000AF0023FB80294BD3F81C31274A43F021
:102240000103C2F81C31254BD3F814313B60002345
:10225000FB8039E0FB88224A0A339B0013449B78B9
:1022600083F00103DBB2002B12D0FB881C4A0A3337
:1022700032F82330002B0BD0FB88194903F10A02F6
:1022800031F82220013A91B2154A0A3322F823107C
:10229000FB88134A0A339B0013449B7883F00103A5
:1022A000DBB2002B0DD0FB880D4A0A3332F8233005
:1022B000002B06D1FB880A4A0A339B0013440122F3
:1022C000DA70FB880133FB80FB88092BC2D900BF81
:1022D00000BF0C37BD465DF8047B704700700340BB
:1022E0008800002080B483B000AF0023FB80294B1E
:1022F000D3F82C31274A43F00103C2F82C31254B87
:10230000D3F824313B600023FB8039E0FB88224A6C
:1023100014339B0013449B7883F00103DBB2002B42
:1023200012D0FB881C4A143332F82330002B0BD018
:10233000FB88194903F1140231F82220013A91B2C5
:10234000154A143322F82310FB88134A14339B00D8
:1023500013449B7883F00103DBB2002B0DD0FB8884
:102360000D4A143332F82330002B06D1FB880A4A79
:1023700014339B0013440122DA70FB880133FB8085
:10238000FB88092BC2D900BF00BF0C37BD465DF8E2
:10239000047B7047007003408800002080B483B045
:1023A00000AF0023FB80294BD3F83C31274A43F090
:1023B0000103C2F83C31254BD3F834313B60002394
:1023C000FB8039E0FB88224A1E339B0013449B7834
:1023D00083F00103DBB2002B12D0FB881C4A1E33B2
:1023E00032F82330002B0BD0FB88194903F11E0271
:1023F00031F82220013A91B2154A1E3322F82310F7
:10240000FB88134A1E339B0013449B7883F001031F
:10241000DBB2002B0DD0FB880D4A1E3332F823307F
:10242000002B06D1FB880A4A1E339B00134401226D
:10243000DA70FB880133FB80FB88092BC2D900BF0F
:1024400000BF0C37BD465DF8047B70470070034049
:102450008800002080B400AF414B03F58053DB6B54
:102460003F4A43F4005302F58052D3633C4B03F5DB
:102470008053DB6B3A4A43F4805302F58052D363B6
:10248000374B03F580539B6B354A43F4C05302F539
:1024900080529363334B4FF4A0721A60314B4FF468
:1024A00010725A612F4B4FF410729A612D4B4FF4FA
:1024B0001072DA612C4B4FF4A0721A612A4B4FF460
:1024C000E8625A61284B4FF4E8629A61264B4FF458
:1024D000E862DA61244B4FF4A0729A60224B4FF409
:1024E000A072DA601F4B4FF4A0725A631D4B4FF479
:1024F000A0729A641D4B5B691C4A43F0010353614F
:102500001A4B5B69194A43F400535361174B5B69DB
:10251000164A23F480235361154B5B69144A23F058
:1025200004035361124B5B69114A43F0100353617A
:102530000E4B5B680D4A43F0010353600B4B5B6825
:102540000A4A43F400535360094B5B68084A43F05E
:102550001003536000BFBD465DF8047B704700BFA9
:102560000070044000B0044000C0044080F00F4000
:10257000C0F00F4080B483B000AF0346FB71FB791D
:10258000022B1ED0022B2ADC002B02D0012B0CD0F8
:1025900025E0164B1B68154B00221A60134B1A6876
:1025A0001249134B13430B6019E0124B1B68114B7C
:1025B00000221A600F4B1A680E490D4B13430B6033
:1025C0000DE00D4B1B680C4B00221A600A4B1B6878
:1025D000094A43F0004343F00113136000BF00BFFA
:1025E0000C37BD465DF8047B704700BF00C0024059
:1025F0000100078000D0024000C00A4080B483B0D0
:1026000000AF03463960FB711346BB71FB79022BA7
:102610002AD0022B3ADC002B02D0012B12D035E05D
:10262000BB79002B06D01C4B1A681B493B6813432F
:102630000B602BE0184B1A683B68DB4316491340CC
:102640000B6023E0BB79002B06D0144B1A681349AA
:102650003B6813430B6019E0104B1A683B68DB437F
:102660000E4913400B6011E0BB79002B06D00A4BDA
:102670001A6809493B6813430B6006E0064B1A6869
:102680003B68DB43044913400B6000BF00BF0C37BD
:10269000BD465DF8047B704700C0024000D0024098
:1026A00080B483B000AF03463960FB71FB79022B25
:1026B00048D0022B6CDC002B02D0012B21D067E02C
:1026C0003B68002B0DD1354BDB68344B0022DA60C0
:1026D000324BDB68314A43F07C5343F48873D36058
:1026E00051E03B68B3F1805F4DD12C4B1B692B4B04
:1026F00000221A61294B1A692849294B13430B619F
:1027000041E03B68002B0DD1264BDB68254B0022B6
:10271000DA60244BDB68234A43F07C5343F488732C
:10272000D36032E03B68B3F1805F2ED11D4B1B6953
:102730001C4B00221A611B4B1A691A491A4B13438E
:102740000B6122E03B68002B0DD1184BDB68174B67
:102750000022DA60154BDB68144A43F0685343F0FB
:102760000403D36013E03B68B3F1805F0FD10F4BDC
:102770001B690E4B00221A610C4B1A690B490C4B5A
:1027800013430B6103E000BF02E000BF00E000BFA5
:1027900000BF0C37BD465DF8047B704700C00240A7
:1027A0001001013E00D002401001013A00C00A4071
:1027B0001001023880B483B000AF0346FB71FB798F
:1027C000022B12D0022B16DC002B02D0012B06D0DC
:1027D00011E00C4B1B6B0B4B00221A630BE0094BF7
:1027E0001B6B084B00221A6305E0064B1B6B054B65
:1027F00000221A6300BF00BF0C37BD465DF8047BA2
:10280000704700BF00C0024080B483B000AF0346F1
:10281000FB71FB79022B14D0022B19DC002B02D0A8
:10282000012B07D014E00D4B1B680C4A23F0010369
:1028300013600DE00A4B1B68094A23F00103136083
:1028400006E0084B1B68074A23F00103136000BF32
:1028500000BF0C37BD465DF8047B704700C00240E6
:1028600000D0024000C00A4080B485B000AF0346EB
:102870003960FB71FB79022B1CD0022B25DC002B6D
:1028800002D0012B0BD020E0134BDA6A3B681340D7
:102890003A689A420CBF01230023FB7315E00F4BEB
:1028A000DA6A3B6813403A689A420CBF012300235E
:1028B000FB730AE00A4BDA6A3B6813403A689A42B3
:1028C0000CBF01230023FB7300BFFB7B18461437AA
:1028D000BD465DF8047B704700C0024000D0024056
:1028E00000C00A4080B483B000AF03463960FB717A
:1028F000FB79022B14D0022B19DC002B02D0012B08
:1029000007D014E00D4BDA6A0C493B681343CB62E5
:102910000DE00B4BDA6A0A493B681343CB6206E0D1
:10292000084BDA6A07493B681343CB6200BF00BF1C
:102930000C37BD465DF8047B704700BF00C0024005
:1029400000D0024000C00A4080B586B000AFB96038
:102950007A601A460346FB731346BB7300237B6100
:102960007A68BB681A43BB7BDB061A433B6A1A438F
:10297000BB8C13437B61FB7B022B0ED0022B1CDC38
:10298000002B02D0012B04D017E00E4A7B69536361
:1029900013E00D4A7B6953630FE000BF4FF00071F5
:1029A0000220FFF761FF034683F00103DBB2002B37
:1029B000F4D1064A7B69536300BF00BF1837BD4698
:1029C00080BD00BF00C0024000D0024000C00A40ED
:1029D00080B485B000AF0346FB71FB79022B0ED0AB
:1029E000022B10DC002B02D0012B04D00BE0094B92
:1029F0009B6BFB6007E0084B9B6BFB6003E0074BA6
:102A00009B6BFB6000BFFB6818461437BD465DF842
:102A1000047B704700C0024000D0024000C00A4062
:102A200080B582B000AF144B1B79FB71FB7903F0CA
:102A30000803002B08D0104B1B79FB710E4BDB7980
:102A4000BB71BB790133BB71FB7903F02003002B11
:102A50000DD0094BDB797B71084B1B681B68002B81
:102A600005D0064B1B681B687A791046984700BF53
:102A70000837BD4680BD00BF00D0064000000020E2
:102A800080B582B000AF144B1B79FB71FB7903F06A
:102A90000803002B08D0104B1B79FB710E4BDB7920
:102AA000BB71BB790133BB71FB7903F02003002BB1
:102AB0000DD0094BDB797B71084B1B681B68002B21
:102AC00005D0064B1B681B687A791046984700BFF3
:102AD0000837BD4680BD00BF00A00E4004000020A6
:102AE00080B483B000AF786039600F4BDB7C1A464E
:102AF0000D4BDB781344DA0F13445B101A467B68E6
:102B00001A60094B1B7D1A46074B1B791344DA0FD9
:102B100013445B101A463B681A6000BF0C37BD4671
:102B20005DF8047B704700BF0C01002080B400AF4B
:102B3000064B5B78262B01D90F2301E06FF00E03C3
:102B40001846BD465DF8047B704700BF0C010020AD
:102B500080B584B000AF144B1B6A022B17D107F16C
:102B6000080207F10C0311461846FFF7B9FFF86891
:102B7000B9683B463A1D02F0BFFC7B683A681146D3
:102B80001846FDF741FF0346084A136008E0064B6C
:102B90001B6A012B04D1FFF7C9FF0346034A1360E8
:102BA00000BF1037BD4680BD0C010020D0010020C1
:102BB00090B484B000AF78604FF0FF33FB60FB68E7
:102BC0000133FB60FB681B017A6813441B78002B00
:102BD00000D0F4E7FB681B017A681344064A1446E8
:102BE0000FCB84E80F00044B01221A6200BF10379C
:102BF000BD4690BC704700BF0C01002090B484B06B
:102C000000AF786039604FF0FF33FB60FB68013341
:102C1000FB60FB681B013A6813441B78002B00D053
:102C2000F4E7FB681B013A681344324A14460FCBA1
:102C300084E80F00FB680133FB60FB681B013A6806
:102C400013441B78002B00D0F4E7FB681B013A68A3
:102C50001A44284B03F1100413460FCB84E80F00ED
:102C60007B68023B7B607B68002B37DDFB680133B0
:102C7000FB60FB681B013A6813441B7883F0010377
:102C8000DBB2002BEFD0FB681B013A6813441A79C2
:102C9000184B1B799A4209D2FB681B013A6813440E
:102CA000144A14460FCB84E80F0013E0FB681B01A5
:102CB0003A6813441A790F4B1B7D9A420AD2FB687B
:102CC0001B013A681A440B4B03F1100413460FCB57
:102CD00084E80F007B68013B7B60C4E7054B022260
:102CE0001A62044B4FF0FF329A6200BF1037BD46A4
:102CF00090BC70470C01002090B484B000AF0F4B23
:102D0000DA780E4BDB7C9A4212D90C4B3C460FCB47
:102D100084E80F00094A094B144610330FCB84E8AE
:102D20000F00064B03F110043B460FCB84E80F0065
:102D300000BF1037BD4690BC704700BF0C0100209B
:102D400080B584B000AF7860084611461A46034645
:102D5000FB700B46BB7013467B707B6800225A6089
:102D60007B6800221A707B680022DA607B68002290
:102D70001A727B6800225A617B6800221A747B6891
:102D80009B69022283F841207B689B69302283F88B
:102D900040207B689B69DB6BFA781A707B689B69C3
:102DA000DB6B0133BA781A707B689B69184602F0B6
:102DB00068FD7B689B69184600F09CF80346002B71
:102DC0000CBF01230023DBB2002B00F082807B6864
:102DD0009B6993F84030312B60D10023BB730023F3
:102DE000FB737B689B6993F84130BA7B9A4252D25D
:102DF0007B689B699A6BBB7B13441B787B737B68F6
:102E00009B699A6BBB7B013313441B783B737B68D4
:102E10009B699A6BBB7B02331344BB607B7B012BAA
:102E20000FD17B68BA685A603B7B304AA2FB032310
:102E30009B08DAB27B681A70FB7B43F00103FB73DB
:102E400021E07B7B022B0FD17B68BA68DA603B7B89
:102E50009B08274AA2FB0323DAB27B681A72FB7B2A
:102E600043F00203FB730EE07B7B042B12D17B68E3
:102E7000BA685A613B7B9B08DAB27B681A74FB7BA9
:102E800043F00403FB733A7BBB7B1344DBB2023396
:102E9000BB73A6E700BF97F90F3022E07B689B6900
:102EA00093F84030032B17D17B689B699B6B1B7891
:102EB000FE2B05D07B689B699B6B1B785BB210E097
:102EC0007B7883F00103DBB2002B05D06FF00103A8
:102ED00007E04FF0FF3304E04FF4FA7002F029FAF4
:102EE0004DE718461037BD4680BD00BFABAAAAAA61
:102EF0002549922480B584B000AF7860786800F0EE
:102F000089F80346FB81B7F90E30002B02DAB7F9D6
:102F10000E3078E07B6893F84230002B40D07B681D
:102F200003F134007B68996B0023042202F00CFB50
:102F30000346FB81B7F90E30002B02DAB7F90E30E9
:102F400061E07B689B6B1A787B6883F840207B6824
:102F50009B6B5A787B6883F841207B689B6B5B880E
:102F6000BB817B6803F134007B68996B7B6893F8C5
:102F7000412007F10A0302F0E7FA0346FB81B7F9A3
:102F80000E30002B02DAB7F90E303CE07B89BA89AB
:102F90009A4237D01E4801F037FA6FF0020332E050
:102FA0007B6803F134007B68996B0023022202F0F6
:102FB000CBFA0346FB81B7F90E30002B02DAB7F9E2
:102FC0000E3020E07B689B6B1A787B6883F840208A
:102FD0007B689B6B5A787B6883F841207B6803F1A0
:102FE00034007B68996B7B6893F84120002302F0E2
:102FF000ABFA0346FB81B7F90E30002B02DAB7F9C2
:103000000E3000E0002318461037BD4680BD00BFDB
:103010003460000080B586B000AF78600023BB75D7
:10302000BB7DFB7500237B757B6803F1340007F1E2
:103030000F010023012202F087FA03467B82B7F9D1
:103040001230002B21DB7B7D3B82FB7B1B021AB203
:10305000B7F9103013431BB23B82FB7B7B753B8A75
:103060004CF2AF12934205D17B68012283F84220D3
:10307000002322E03B8A4CF2AE12934205D17B68DA
:10308000002283F84220002317E0FB7D032B10D998
:10309000BB7D032B05D90B4801F0B6F94FF0FF3388
:1030A0000BE0192002F045F9BB7D0133BB7500230D
:1030B000FB75FB7D0133FB75B6E718461837BD4637
:1030C00080BD00BF4860000080B400AF174B1B6894
:1030D00007EE903AF8EEE77ABBEE047AF4EEC77AA0
:1030E000F1EE10FA02D5FFEE007A19E00F4B1B68E3
:1030F00007EE903AF8EEE77AB3EE047AF4EEC77A88
:10310000F1EE10FA02DDF7EE007A09E0074B1B68DA
:1031100007EE903AB8EEE77AF3EE046AC7EE267A45
:10312000B0EE670ABD465DF8047B7047D001002011
:1031300080B582B000AFFFF7C7FF87ED010A97EDBA
:10314000010A002002F0B6F9044B1B681946044836
:1031500001F05AF900BF0837BD4680BDD0010020FC
:103160005C60000080B592B000AF02F066F8FDF739
:1031700057FF02F07AF902F0F8F802F000F902F0D5
:103180004BF802F053F802F00FF902F024F902F0C4
:1031900069F802F079F802F06FF9FDF789FF02F0A3
:1031A00052F802F058F802F067F9FDF781FF62B6B5
:1031B00000BF02F0EBF802F0F0F83B1D184602F0F9
:1031C00099FB3B1D4FF00041184600F037F83B1DBE
:1031D00000220021184602F0BFFBDFED150A9FED2B
:1031E000140A02F078F99FED120A002002F062F949
:1031F0000020FDF721FF034683F00103DBB2002B23
:1032000000D0F5E7DFED0B0A9FED0B0A02F063F942
:103210000020FDF711FF0346002BDED03B1D1846B2
:1032200002F0A2FAFFF794FCFFF782FFF0E700BF7D
:1032300000000000CDCC4C3FCDCC4CBF80B584B05D
:1032400000AF786039607B6834333968184602F023
:1032500045FB0346FB7397F90F30002B02DA97F911
:103260000F3025E000F054FDB86000F051FD02463B
:10327000BB68D31A104A934294BF01230023DBB2E8
:10328000002B13D0786802F0D2FB0346DB43DBB29D
:10329000DB09DBB2002B04D0786802F0FEFB0023D0
:1032A00006E041F2883002F044F8DEE76FF00303F5
:1032B00018461037BD4680BD3F4B4C0080B584B0EA
:1032C00000AF786039607B68DB78FB737B689B7844
:1032D000BB73BB7B03F02003002B04D1FB7B03F00B
:1032E0001003002B05D0094B1B6839687868984794
:1032F00004E0074B1B68396878689847BFF34F8F25
:1033000000BF00BF1037BD4680BD00BFE0010020F8
:10331000E401002080B500AF034B1B681946034849
:10332000FFF7CCFF00BF80BDD40100200060064045
:1033300080B500AF034B5B6819460348FFF7BEFF3B
:1033400000BF80BDD40100200070064080B500AFF2
:10335000034B9B6819460348FFF7B0FF00BF80BDD1
:10336000D401002000600E4080B500AF054B1B6803
:10337000054A1268114605489847BFF34F8F00BFB2
:1033800000BF80BD00020020E801002000A0064030
:1033900080B500AF054B1B68054A526811460548C9
:1033A0009847BFF34F8F00BF00BF80BD00020020D1
:1033B000E801002000B0064080B500AF054B1B6857
:1033C000054A9268114605489847BFF34F8F00BFE2
:1033D00000BF80BD00020020E801002000C00640C0
:1033E00080B500AF054B1B68054A52691146054878
:1033F0009847BFF34F8F00BF00BF80BD0002002081
:10340000E801002000B00E4080B500AF0B4BD3F8B0
:1034100088300A4A43F47003C2F88830084B4CF2F3
:103420002052DA81064B4DF62812DA81044B4FF414
:10343000E9721A8002F0A3FB00BF80BD00ED00E03E
:103440000020054081F0004102E000BF83F000430E
:1034500030B54FEA41044FEA430594EA050F08BF2F
:1034600090EA020F1FBF54EA000C55EA020C7FEAF3
:10347000645C7FEA655C00F0E2804FEA5454D4EB70
:103480005555B8BF6D420CDD2C4480EA020281EA3A
:10349000030382EA000083EA010180EA020281EA72
:1034A0000303362D88BF30BD11F0004F4FEA0131C4
:1034B0004FF4801C4CEA113102D0404261EB4101D3
:1034C00013F0004F4FEA03334CEA133302D0524259
:1034D00063EB430394EA050F00F0A780A4F1010415
:1034E000D5F1200E0DDB02FA0EFC22FA05F280184F
:1034F00041F1000103FA0EF2801843FA05F3594135
:103500000EE0A5F120050EF1200E012A03FA0EFCB3
:1035100028BF4CF0020C43FA05F3C01851EBE371DD
:1035200001F0004507D54FF0000EDCF1000C7EEBFA
:1035300000006EEB0101B1F5801F1BD3B1F5001F38
:103540000CD349085FEA30004FEA3C0C04F1010457
:103550004FEA445212F5800F80F09A80BCF1004F80
:1035600008BF5FEA500C50F1000041EB045141EA02
:10357000050130BD5FEA4C0C404141EB0101013CCB
:1035800028BFB1F5801FE9D291F0000F04BF0146BA
:103590000020B1FA81F308BF2033A3F10B03B3F18C
:1035A00020020CDA0C3208DD02F1140CC2F10C021C
:1035B00001FA0CF021FA02F10CE002F11402D8BF7A
:1035C000C2F1200C01FA02F120FA0CFCDCBF41EA46
:1035D0000C019040E41AA2BF01EB0451294330BD15
:1035E0006FEA04041F3C1CDA0C340EDC04F11404F2
:1035F000C4F1200220FA04F001FA02F340EA0300C9
:1036000021FA04F345EA030130BDC4F10C04C4F10E
:10361000200220FA02F001FA04F340EA03002946EE
:1036200030BD21FA04F0294630BD94F0000F83F438
:10363000801306BF81F480110134013D4EE77FEA1B
:10364000645C18BF7FEA655C29D094EA050F08BF67
:1036500090EA020F05D054EA000C04BF1946104648
:1036600030BD91EA030F1EBF0021002030BD5FEA8C
:10367000545C05D14000494128BF41F0004130BDB4
:1036800014F580043CBF01F5801130BD01F0004508
:1036900045F0FE4141F470014FF0000030BD7FEA7B
:1036A000645C1ABF194610467FEA655C1CBF0B4676
:1036B000024650EA013406BF52EA033591EA030F8D
:1036C00041F4002130BD00BF90F0000F04BF002185
:1036D000704730B54FF4806404F132044FF00005B8
:1036E0004FF0000150E700BF90F0000F04BF002131
:1036F000704730B54FF4806404F1320410F0004597
:1037000048BF40424FF000013EE700BF42004FEA91
:10371000E2014FEA31014FEA02701FBF12F07F430E
:1037200093F07F4F81F06051704732F07F4208BFC5
:10373000704793F07F4F04BF41F40021704730B5CC
:103740004FF4607401F0004521F000411CE700BF18
:1037500050EA010208BF704730B54FF000050AE09B
:1037600050EA010208BF704730B511F0004502D59C
:10377000404261EB41014FF4806404F132045FEA9E
:10378000915C3FF4D8AE4FF003025FEADC0C18BF47
:1037900003325FEADC0C18BF033202EBDC02C2F139
:1037A000200300FA03FC20FA02F001FA03FE40EACB
:1037B0000E0021FA02F11444BDE600BF70B54FF0CF
:1037C000FF0C4CF4E06C1CEA11541DBF1CEA1355AD
:1037D00094EA0C0F95EA0C0F00F0DEF82C4481EA15
:1037E000030621EA4C5123EA4C5350EA013518BF35
:1037F00052EA033541F4801143F4801338D0A0FB22
:1038000002CE4FF00005E1FB02E506F00042E0FBCE
:1038100003E54FF00006E1FB03569CF0000F18BFD4
:103820004EF0010EA4F1FF04B6F5007F64F540747C
:1038300004D25FEA4E0E6D4146EB060642EAC6210F
:1038400041EA55514FEAC52040EA5E504FEACE2E7C
:10385000B4F1FD0C88BFBCF5E06F1ED8BEF1004F7F
:1038600008BF5FEA500E50F1000041EB045170BDFB
:1038700006F0004646EA010140EA020081EA03013F
:10388000B4EB5C04C2BFD4EB0C0541EA045170BD3B
:1038900041F480114FF0000E013C00F3AB8014F1B5
:1038A000360FDEBF002001F0004170BDC4F10004FE
:1038B000203C35DA0C341BDC04F11404C4F120057F
:1038C00000FA05F320FA04F001FA05F240EA0200DA
:1038D00001F0004221F0004110EBD37021FA04F610
:1038E00042EB06015EEA430E08BF20EAD37070BDCA
:1038F000C4F10C04C4F1200500FA04F320FA05F029
:1039000001FA04F240EA020001F0004110EBD3702A
:1039100041F100015EEA430E08BF20EAD37070BD9A
:10392000C4F1200500FA05F24EEA020E20FA04F373
:1039300001FA05F243EA020321FA04F001F0004122
:1039400021FA04F220EA020000EBD3705EEA430E93
:1039500008BF20EAD37070BD94F0000F0FD101F0C2
:103960000046400041EB010111F4801F08BF013CFB
:10397000F7D041EA060195F0000F18BF704703F039
:103980000046520043EB030313F4801F08BF013DC0
:10399000F7D043EA0603704794EA0C0F0CEA13557C
:1039A00018BF95EA0C0F0CD050EA410618BF52EA36
:1039B0004306D1D181EA030101F000414FF000003C
:1039C00070BD50EA410606BF1046194652EA43064A
:1039D00019D094EA0C0F02D150EA013613D195EABE
:1039E0000C0F05D152EA03361CBF104619460AD106
:1039F00081EA030101F0004141F0FE4141F4700110
:103A00004FF0000070BD41F0FE4141F4780170BDFF
:103A100070B54FF0FF0C4CF4E06C1CEA11541DBF64
:103A20001CEA135594EA0C0F95EA0C0F00F0A7F866
:103A3000A4EB050481EA030E52EA03354FEA013193
:103A400000F088804FEA03334FF0805545EA1313A6
:103A500043EA12634FEA022245EA111545EA10656E
:103A60004FEA00260EF000419D4208BF964244F105
:103A7000FD0404F5407402D25B084FEA3202B61A24
:103A800065EB03055B084FEA32024FF480104FF4F8
:103A9000002CB6EB020E75EB030E22BFB61A75466C
:103AA00040EA0C005B084FEA3202B6EB020E75EBFF
:103AB000030E22BFB61A754640EA5C005B084FEA67
:103AC0003202B6EB020E75EB030E22BFB61A754634
:103AD00040EA9C005B084FEA3202B6EB020E75EB3F
:103AE000030E22BFB61A754640EADC0055EA060E00
:103AF00018D04FEA051545EA16754FEA06164FEA43
:103B0000C30343EA52734FEAC2025FEA1C1CC0D1EE
:103B100011F4801F0BD141EA00014FF000004FF07B
:103B2000004CB6E711F4801F04BF01430020B4F13C
:103B3000FD0C88BFBCF5E06F3FF6AFAEB5EB030CF4
:103B400004BFB6EB020C5FEA500C50F1000041EBF1
:103B5000045170BD0EF0004E4EEA113114EB5C04BE
:103B6000C2BFD4EB0C0541EA045170BD41F4801191
:103B70004FF0000E013C90E645EA060E8DE60CEA99
:103B8000135594EA0C0F08BF95EA0C0F3FF43BAFB6
:103B900094EA0C0F0AD150EA01347FF434AF95EA6D
:103BA0000C0F7FF425AF104619462CE795EA0C0F51
:103BB00006D152EA03353FF4FDAE1046194622E71E
:103BC00050EA410618BF52EA43067FF4C5AE50EAF8
:103BD00041047FF40DAF52EA43057FF4EBAE12E7E8
:103BE0004FEA410212F5001215D211D56FF4787325
:103BF000B3EB625212D94FEAC12343F0004343EAC8
:103C0000505311F0004F23FA02F018BF40427047A2
:103C10004FF00000704750EA013005D111F000402C
:103C200008BF6FF0004070474FF00000704700BFC2
:103C30004A0011D212F5001211D20DD56FF478732B
:103C4000B3EB62520ED44FEAC12343F0004343EA80
:103C5000505323FA02F070474FF00000704750EACB
:103C6000013002D14FF0FF3070474FF00000704735
:103C70004FEA4102B2F1E04324BFB3F5001CDCF18E
:103C8000FE5C0DD901F0004C4FEAC0024CEA5070C6
:103C9000B2F1004F40EB830008BF20F001007047F5
:103CA00011F0804F21D113F13872BCBF01F00040F8
:103CB000704741F480114FEA5252C2F11802C2F12A
:103CC000200C10FA0CF320FA02F018BF40F00100AB
:103CD0004FEAC1234FEAD32303FA0CFC40EA0C005D
:103CE00023FA02F34FEA4303CCE77FEA625307D19A
:103CF00050EA01331EBF4FF0FE4040F440007047D1
:103D000001F0004040F0FE4040F40000704700BF6A
:103D10001FB5084B6946186801F0D6FF431C06D052
:103D2000DDE900031844029B1844039B184405B0C6
:103D30005DF804FB08000020014B1868704700BFC5
:103D40000800002070B50D4D0D4C641BA41000261A
:103D5000A64209D10B4D0C4C02F0D6F9641BA410FD
:103D60000026A64205D170BD55F8043B98470136A0
:103D7000EEE755F8043B98470136F2E7186100007A
:103D800018610000186100001C610000024B014630
:103D9000186800F06FB800BF0800002037B5002990
:103DA00044D051F8043C0190002BA1F10404B8BFA9
:103DB000E41800F0D3FD1E4A0198136833B963601C
:103DC000146003B0BDE8304000F0CEBDA34208D976
:103DD000256861198B4201BF19685B684919216028
:103DE000EDE71A465B680BB1A342FAD91168551882
:103DF000A5420BD1246821445418A3421160E0D19C
:103E00001C685B68536021441160DAE702D90C2317
:103E10000360D6E7256861198B4204BF19685B68A7
:103E2000636004BF491921605460CAE703B030BD24
:103E30000402002070B50E4E0C463168054611B9DB
:103E400000F0FAFA30602146284600F0F5FA431CEB
:103E50000AD0C41C24F00304A04207D0211A28462B
:103E600000F0EAFA013001D14FF0FF34204670BD76
:103E7000080200202DE9F041CD1C25F0030508358E
:103E80000C2D38BF0C25002D074601DBA94205D9B2
:103E90000C233B6000263046BDE8F0812E4E00F03A
:103EA0005DFD33681C4634BB29463846FFF7C2FF28
:103EB000431C04464DD134682646002E40D1236869
:103EC0003146384604EB030800F0B6FA80453AD193
:103ED000216803356D1A25F0030508350C2D38BF10
:103EE0000C2529463846FFF7A5FF01302BD0236863
:103EF0002B4423600EE02268521B1ED40B2A16D9D5
:103F00006119A342256018BF5960636808BF31601A
:103F100062514B60384604F10B0600F025FD26F097
:103F20000706231DF21AB6D09B1BA350B3E76268A5
:103F3000A3420CBF32605A60ECE723466468B2E7E4
:103F400034467668B9E70C233B60384600F00CFD38
:103F5000A1E72560DEE700BF040200202DE9F04F55
:103F60000D469DB014469846064618B183690BB9B4
:103F700000F036FC894B9D421BD175686B6ED907EA
:103F800005D4AB899A0502D4A86D01F0D6FEAB89A1
:103F90001B0701D52B69EBB92946304600F0AEFA74
:103FA000C0B16B6EDC070ED54FF0FF301DB0BDE821
:103FB000F08F7B4B9D4201D1B568DFE7794B9D4285
:103FC00008BFF568DAE7AB899805EDD4A86D01F074
:103FD000B5FEE9E70023099320238DF82930CDF8B9
:103FE0000C803023DFF8C0818DF82A304FF00109B2
:103FF00023469A4613F8012B0AB1252AF9D1BAEBC8
:10400000040B0BD05B4622462946304601F0DDFD0D
:10401000013000F0AA80099A5A4409929AF80030B7
:10402000002B00F0A28000234FF0FF32CDE90523E2
:104030000AF1010A049307938DF853301A935446FA
:10404000052214F8011B5848FCF7E2F9049AD8B984
:10405000D10644BF20238DF85330130744BF2B23D0
:104060008DF853309AF800302A2B15D0079A544611
:1040700000204FF00A0C214611F8013B303B092B80
:104080004ED9B0B1079214E0A0EB080309FA03F38C
:1040900013430493A246D2E7039B191D1B680391A7
:1040A000002BBBBF5B4242F0020207930793B8BFED
:1040B000049223782E2B0CD163782A2B35D1039BC5
:1040C0001A1D1B680392002BB8BF4FF0FF33023458
:1040D0000593DFF8E4A0217803225046FCF798F915
:1040E00040B14023A0EB0A0003FA00F0049B034315
:1040F0000134049314F8011B2C488DF82810062273
:10410000FCF786F900283FD0294B1BBB039B0733E4
:1041100023F0070308330393099B3B44099367E7A4
:104120000CFB02320C460120A5E700230134059365
:1041300019464FF00A0C204610F8012B303A092A94
:1041400003D9002BC5D00591C3E70CFB0121044620
:104150000123F0E703AB00932A46164B04A930462F
:10416000AFF300800746781CD6D16B6ED90705D413
:10417000AB899A0502D4A86D01F0E0FDAB895B061E
:104180003FF512AF099811E703AB00932A46094B9C
:1041900004A9304600F012F8E4E700BF8C6000008C
:1041A000AC6000006C600000CC600000D6600000D5
:1041B00000000000CB5B0000D26000002DE9FF474B
:1041C0000F7E0C9D782F914680460C469A4601F151
:1041D000430207D8622F0AD8002F00F0D880582F4A
:1041E00000F0A38004F1420584F842703AE0A7F1A0
:1041F0006303152BF6D801A151F823F055420000B6
:1042000069420000E5410000E5410000E541000091
:10421000E541000069420000E5410000E541000081
:10422000E5410000E54100007543000099420000AF
:1042300057430000E5410000E541000097430000BE
:10424000E541000099420000E5410000E541000021
:104250005F4300002B681A1D1B682A6004F14205A9
:1042600084F842300123A3E020682968060601F1A2
:1042700004030AD50E682B60002E03DA2D23764244
:1042800084F843305E480A2319E00E682B6010F072
:10429000400F18BF36B2EFE72B682068191D296060
:1042A000010601D51E6802E04606FBD51E8854486B
:1042B0006F2F0CBF08230A23002184F84310656880
:1042C000A560002DA2BF216821F0040121600EB974
:1042D000002D4DD01546B6FBF3F103FB1167C75D0A
:1042E00005F8017D3746BB420E46F4D9082B0BD1A9
:1042F0002368DE0708D5236961689942DEBF302351
:1043000005F8013C05F1FF35521B2261CDF800A0F4
:104310004B4603AA2146404601F069FC01304CD1CE
:104320004FF0FF3004B0BDE8F087354881F84570A4
:104330002968236851F8046B29601D0614D5DF072E
:1043400044BF43F0200323601EB9236823F02003F9
:1043500023601023B0E7236843F020032360782311
:10436000284884F84530E3E7590648BFB6B2E6E787
:104370001546BBE72B6826686169181D286035065D
:104380001B6801D5196002E07006FBD51980002377
:1043900023611546BAE72B681A1D2A601D686268FA
:1043A00000212846FCF734F808B1401B60606368C0
:1043B0002361002384F84330A8E723692A4649464D
:1043C0004046D0470130ABD023689B0713D4E06848
:1043D000039B9842B8BF1846A4E7012332464946DA
:1043E0004046D04701309BD00135E36803995B1A02
:1043F000AB42F2DCEBE7002504F11906F5E700BF5C
:10440000DD600000EE6000000FB40A4B13B51C68BD
:1044100024B1A36913B9204600F0E2F905AB049A70
:10442000A16801932046FFF799FD02B0BDE8104056
:1044300004B070470800002038B5064D002304463C
:1044400008462B6000F03CFC431C02D12B6803B1F2
:10445000236038BD0C020020F8B50E461446054610
:1044600018B183690BB900F0BBF9214B9C422BD1E9
:104470006C68A369A360A3891A072FD523696BB35E
:1044800023692068C01A6369F6B28342374604DCA8
:104490002146284600F026F930BBA368013BA36003
:1044A00023685A1C22601E7063690130834204D065
:1044B000A389DB0706D50A2E04D12146284600F041
:1044C00011F988B93846F8BD0A4B9C4201D1AC6855
:1044D000CFE7094B9C4208BFEC68CAE72146284653
:1044E00000F00CF80028CBD04FF0FF37EAE700BF10
:1044F0008C600000AC6000006C600000324B70B556
:104500001D6806460C4625B1AB6913B9284600F074
:1045100067F92E4B9C420FD16C68A389B4F90C202B
:1045200019072CD4DD0611D40923336042F040036F
:10453000A3814FF0FF303EE0254B9C4201D1AC6897
:10454000EBE7244B9C4208BFEC68E6E7580712D51E
:10455000616B41B104F14403994202D03046FFF748
:104560001DFC00236363A38923F02403A38100239C
:10457000636023692360A38943F00803A38123694F
:104580004BB9A38903F42073B3F5007F03D0214610
:10459000304600F0A3F9A089B4F90C2010F0010313
:1045A0000AD00023A36063695B42A361236943B916
:1045B00010F08000BAD170BD810758BF6369A36055
:1045C000F4E70020F7E700BF080000208C6000003F
:1045D000AC6000006C6000008A892DE9F04105465E
:1045E00010070C4658D44B68002B05DC0B6C002BD5
:1045F00002DC0020BDE8F081E66A002EF9D000233D
:1046000012F480522F682B6032D0606DA3895A0754
:1046100005D56368C01A636B0BB1236CC01A002305
:104620000246E66A216A2846B047431CA38906D1A0
:1046300029681D292CD82A4ACA40D60728D5002225
:104640006260D9042269226004D5421C01D12B6822
:1046500003B96065616B2F600029CAD004F144037F
:10466000994202D02846FFF799FB00206063C1E71A
:10467000216A01232846B047411CC7D12B68002B73
:10468000C4D01D2B01D0162B01D12F60B1E7A38917
:1046900043F04003A381ADE70F69002FA9D0930732
:1046A0000E6808BF4B690F6018BF0023A6EB070810
:1046B0008B60B8F1000F9CDD216AA66A43463A463A
:1046C0002846B047002806DCA38943F04003A381B5
:1046D0004FF0FF308EE70744A8EB0008E9E700BF82
:1046E0000100402038B50B6905460C4613B900257A
:1046F000284638BD18B183690BB900F071F8144B26
:104700009C421BD16C68B4F90C30002BEFD0626E68
:10471000D00704D4990502D4A06D01F00EFB284601
:104720002146FFF759FF636EDA070546E0D4A389F7
:104730009B05DDD4A06D01F001FBD9E7054B9C4240
:1047400001D1AC68DFE7044B9C4208BFEC68DAE7B4
:104750008C600000AC6000006C600000002310B5AD
:104760000446C0E90033C0E90433836081814366B5
:10477000C2818361194608225C3001F007FA054BBB
:104780006362054BA362054BE362054B246223631E
:1047900010BD00BF895D0000AB5D0000E35D00005F
:1047A000075E0000014901F0A8BA00BFE54600001D
:1047B000014801F0C2BA00BF6F020020014801F0B9
:1047C000BDBA00BF6F020020014801F0B6BA00BFB9
:1047D00070020020014801F0B1BA00BF7002002051
:1047E00010B50446FFF7F0FFA3691BB1BDE8104008
:1047F000FFF7F0BFC4E912332365134B134A1B685C
:10480000A262A34204BF0123A361204600F020F866
:104810006060204600F01CF8A060204600F018F808
:104820000022E06004216068FFF798FFA068012281
:104830000921FFF793FFE06802221221FFF78EFFA4
:104840000123A361D2E700BF68600000A547000014
:10485000F8B50746FFF7ACFF1E4B1E68B36913B9E6
:104860003046FFF7BDFF4836D6E90134013B03D59A
:1048700033680BB33668F7E7B4F90C50D5B9164B6B
:10488000E36004F15800656601F056FAFFF796FF01
:10489000C4E90155C4E904552560A56108222946EB
:1048A00004F15C0001F072F9C4E90D55C4E9125538
:1048B0002046F8BD6834D9E70421384601F007FAEC
:1048C000044630600028D5D1FFF778FF0C233B6009
:1048D000EEE700BF686000000100FFFF8B8973B541
:1048E0009D0706460C4607D504F147032360236164
:1048F0000123636102B070BD01AB6A4601F01FFA8B
:10490000009905463046FFF7B5FA48B9B4F90C30BE
:104910009A05EFD423F0030343F00203A381E3E7F6
:104920000D4BB362A389206043F08003A381009BF9
:104930006361019B20615BB1B4F90E10304600F059
:104940004DF828B1A38923F0030343F00103A381A9
:10495000A0890543A581CDE7A5470000014801F0E6
:10496000ECB900BF6E020020014801F0E7B900BFBA
:104970006E02002038B5074D044608461146002255
:104980002A601A4601F0CFFA431C02D12B6803B10A
:10499000236038BD0C02002038B5064D00230446C4
:1049A00008462B6000F014FA431C02D12B6803B1B7
:1049B000236038BD0C02002038B5074D00230446A3
:1049C000084611462B6001F0FEFA431C02D12B6809
:1049D00003B1236038BD00BF0C02002038B5064D7E
:1049E0000023044608462B6001F00FFB431C02D154
:1049F0002B6803B1236038BD0C02002038B5074D89
:104A000004460846114600222A601A4601F079FA47
:104A1000431C02D12B6803B1236038BD0C02002077
:104A200038B5074D04460846114600222A601A464A
:104A300001F010FA431C02D12B6803B1236038BD8A
:104A40000C02002038B52DED028B55EC104BFCF715
:104A50003BF822462B4620462946B0EE408AF0EE2F
:104A6000608A00F08FFA50B945EC104B00F01EF947
:104A70000C4B51EC100B002200F07AFA30B9B0EE7A
:104A8000480AF0EE680ABDEC028B38BDFFF754F916
:104A9000BDEC028B034621221A600348BDE8384072
:104AA000FCF782BA0000F03F4460000038B52DEDFD
:104AB000028B55EC104B00F02DF822462B46204679
:104AC0002946B0EE408AF0EE608A00F05BFA30B919
:104AD000002200232046294600F02CFA30B9B0EE1F
:104AE000480AF0EE680ABDEC028B38BDFFF724F9E6
:104AF000002200232121016010461946FEF788FF9D
:104B000041EC180BB0EE480AF0EE680ABDEC028BDF
:104B100038BD00BF2DE9F041634A55EC104BAA4364
:104B200000F09F80002D10EE10CA2B4654DD291591
:104B300063D0C3F31303A1F2FF37C90743F4801313
:104B400004D45B0003EBDC734FEA4C0C4FEADC72DD
:104B5000002602EB43037F104FEA4C0C4FF0160E79
:104B600034464FF40012A118994202DC5B1A8C18EB
:104B700016445B00BEF1010E03EBDC734FEA5202F8
:104B80004FEA4C0CEFD1754620204FF000420AE06E
:104B900044D04FEADC71013801EB43034FEA4C0C7F
:104BA0004FEA520243D0A34202EB0E01F0DD00298E
:104BB00001EB020E0ADBA0461B1B614588BF03F117
:104BC000FF33ACEB010C15444446E2E7BEF1000FA5
:104BD000F1DB04F10108EFE725F00042224338D071
:104BE000002D4ED129464FEADC22153913464FEAF3
:104BF0004C5C002AF7D0D60250D400205B00DD02C6
:104C0000044600F10100F9D51A4663460CFA00FC8F
:104C1000C0F12000C340091B13438AE76145B8D89F
:104C2000002901EB020ED1DB98460023C9E753EAC5
:104C30000C0310D168087110F30701F17F5101F5E1
:104C4000001148BF40F0004001EB0753024643EC1F
:104C5000102BBDE8F0816A1C16BF681C01364008A5
:104C6000E9E710EE102A10EE100A2B462946FEF74F
:104C7000A5FD22462B46FEF7EBFB41EC100BBDE8F1
:104C8000F08110EE102A20462946FEF7DFFB02468F
:104C90000B46FEF7BDFE41EC100BDAE76346202021
:104CA0004FF0FF34B6E700BF0000F07F51EC100B6F
:104CB00010EE102A21F0004343EC102B704700BF88
:104CC00070B50C4D2B680BB90B4B2B6003302E6865
:104CD00020F003043444204600F0A0F810B92C6002
:104CE000304670BDFFF728F80C2303604FF0FF3605
:104CF000F6E700BF10020020780200202DE9FF47F0
:104D0000DFF89490CDF80490032700230397012443
:104D1000029301AE20463146ABBE0546DFF87C80EB
:104D2000CDF8049004230397C8F80050029320465E
:104D30003146ABBE8246144DCDF80490082303974C
:104D4000C5F800A0029320463146ABBE04460F4989
:104D500028680C60013404BF2B680B600C4B096899
:104D60004FF0FF329A611A62D8F800201A600022D0
:104D7000C3E90202C3E904125A60064B01221A6019
:104D800004B0BDE8F08700BF200200201802002018
:104D90002402002014020020FF6000001C020020FA
:104DA000042810B5044601D9002010BD064B1B682D
:104DB0000BB9FFF7A3FF054850F834200132F3D0B8
:104DC00000EBC400F1E700BF140200202402002021
:104DD00038B50546FFF7E4FF044630B9FEF7ACFFEF
:104DE000092303604FF0FF3038BD013D012D09D884
:104DF000094B9A681B699A4204D14FF0FF33036054
:104E00000020F1E7206801F0B0F80028ECD14FF065
:104E1000FF332360E8E700BF24020020044B23B1E6
:104E2000984234BF0020012070471846704700BFE9
:104E30007812002010B5054C237833B9044B13B118
:104E40000448AFF300800123237010BD4C02002002
:104E5000000000002861000008B5034B1BB10349A6
:104E60000348AFF3008008BD00000000500200209E
:104E7000286100004FF0FF3C06E000BF4FF0010C3E
:104E800002E000BF4FF0010C4DF804CD4FEA410C99
:104E90007FEA6C5C4FEA430C18BF7FEA6C5C1BD066
:104EA00001B050EA410C0CBF52EA430C91EA030FE7
:104EB00002BF90EA020F0020704710F1000F91EA44
:104EC000030F58BF994208BF90422CBFD8176FEA12
:104ED000E37040F0010070474FEA410C7FEA6C5CE0
:104EE00002D150EA013C07D14FEA430C7FEA6C5CE7
:104EF000D6D152EA033CD3D05DF8040B704700BF13
:104F00008446104662468C461946634600E000BF60
:104F100001B5FFF7B7FF002848BF10F1000F01BD32
:104F20004DF808EDFFF7F4FF0CBF012000205DF8FD
:104F300008FB00BF4DF808EDFFF7EAFF34BF012082
:104F400000205DF808FB00BF4DF808EDFFF7E0FF1B
:104F500094BF012000205DF808FB00BF4DF808ED6C
:104F6000FFF7CEFF94BF012000205DF808FB00BFD3
:104F70004DF808EDFFF7C4FF34BF012000205DF8B5
:104F800008FB00BF4FEA410C7FEA6C5C02D150EA9B
:104F9000013C0AD14FEA430C7FEA6C5C02D152EA31
:104FA000033C02D14FF0000070474FF00100704702
:104FB00008B5FBF758F908BD08B5FBF754F908BD6B
:104FC00008B5FBF750F908BD08B5FBF74CF908BD6B
:104FD00008B5FBF748F908BD08B5FBF744F908BD6B
:104FE00008B5FBF740F908BD08B5FBF73CF908BD6B
:104FF00008B5FBF738F908BD08B5FBF734F908BD6B
:1050000008B5FBF730F908BD08B5FBF72CF908BD6A
:1050100008B5FBF728F908BD08B5FBF724F908BD6A
:1050200008B5FBF720F908BD08B5FBF71CF908BD6A
:1050300008B5FBF718F908BD08B5FBF714F908BD6A
:1050400008B5FBF710F908BD08B5FBF70CF908BD6A
:1050500008B5FBF708F908BD08B5FBF704F908BD6A
:1050600008B5FBF700F908BD08B5FBF7FCF808BD6B
:1050700008B5FEF74FF908BD08B5FEF759F908BDA8
:1050800008B5FBF7F0F808BD08B5FBF7ECF808BD6C
:1050900008B5FBF7E8F808BD08B5FBF7E4F808BD6C
:1050A00008B5FBF7E0F808BD08B500F044FD08BD01
:1050B00008B5FBF7D8F808BD08B500F045FD08BDF8
:1050C00008B5FBF7D0F808BD08B500F046FD08BDEF
:1050D00008B5FBF7C8F808BD08B5FBF7C4F808BD6C
:1050E00008B5FBF7C0F808BD08B5FBF7BCF808BD6C
:1050F00008B5FBF7B8F808BD08B5FBF7B4F808BD6C
:1051000008B5FBF7B0F808BD08B5FBF7ACF808BD6B
:1051100008B5FBF7A8F808BD08B5FBF7A4F808BD6B
:1051200008B5FBF7A0F808BD08B5FBF79CF808BD6B
:1051300008B5FBF798F808BD08B5FBF794F808BD6B
:1051400008B5FBF790F808BD08B5FBF78CF808BD6B
:1051500008B5FBF788F808BD08B5FBF784F808BD6B
:1051600008B5FBF780F808BD08B5FBF77CF808BD6B
:1051700008B5FBF778F808BD08B5FBF774F808BD6B
:1051800008B5FBF770F808BD08B500F0EFFC08BDE6
:1051900008B5FBF768F808BD08B5FBF764F808BD6B
:1051A00008B5FBF760F808BD08B5FBF75CF808BD6B
:1051B00008B5FBF758F808BD08B5FEF7C7F808BDF5
:1051C00008B5FBF750F808BD08B5FBF74CF808BD6B
:1051D00008B5FBF748F808BD08B5FBF744F808BD6B
:1051E00008B5FBF740F808BD08B5FBF73CF808BD6B
:1051F00008B5FBF738F808BD08B5FBF734F808BD6B
:1052000008B5FBF730F808BD08B5FBF72CF808BD6A
:1052100008B5FBF728F808BD80B500AFFBF794FF91
:10522000FBF7B4FFFBF790FF00BF80BD80B400AF79
:1052300000BFBD465DF8047B704780B500AFFCF74A
:10524000D5F900BF80BD80B500AF00210020FCF77C
:10525000E1F900BF80BD80B400AF00BFBD465DF87E
:10526000047B704780B500AF0120FCF759FE022097
:10527000FCF756FE01210120FBF7E2FA0121022092
:10528000FBF7DEFA00BF80BD80B500AF0120FCF760
:105290000BFE0220FCF708FE00BF80BD80B582B087
:1052A00000AF03460A46FB711346BB80BA88FB7900
:1052B00011461846FCF770FE034618460837BD46EF
:1052C00080BD80B582B000AF03460A46FB7113462D
:1052D000BB80BA88FB7911461846FCF7EBFE00BF8D
:1052E0000837BD4680BD80B582B000AF0346FB7174
:1052F0000B46BB8013467B807A88B988FB791846B9
:10530000FCF70CFF00BF0837BD4680BD80B582B0FA
:1053100000AF03460A46FB711346BB80BA88FB798F
:1053200011461846FCF7AAFE034618460837BD4644
:1053300080BD80B485B000AF78600023FB6000239F
:10534000BB600023FB6005E0BB680133BB60FB680A
:105350000133FB60FA687B689A42F5DB00BF00BF4F
:105360001437BD465DF8047B704780B500AF00225E
:105370004FF470010120FCF70DFA00BF80BD80B42E
:1053800000AF00BFBD465DF8047B704780B400AF3E
:1053900000BFBD465DF8047B704780B400AF00BF1E
:1053A000BD465DF8047B704780B500AFFDF752F84D
:1053B0000120FDF7FFF90120FDF7DCF84FF08051E7
:1053C0000120FDF76DF901224FF480310120FDF736
:1053D00015F900BF80BD80B500AF0020FDF714FABD
:1053E0000120FDF711FA4FF080510020FDF77AFA05
:1053F0004FF080510120FDF775FA00BF80BD80B5E8
:1054000086B002AF0346FB80FB8801934FF4801304
:105410000093012300224FF080510120FDF794FA00
:1054200000BF4FF400310120FDF71EFA034683F060
:105430000103DBB2002BF4D10120FDF7C9FA0346CA
:10544000FB814FF000410120FDF74CFA4FF4003191
:105450000120FDF747FA4FF080510120FDF742FA95
:10546000FB8918461037BD4680BD80B400AF00BF31
:10547000BD465DF8047B704780B500AFFCF7DCFAF1
:1054800000224FF460310020FCF784F900224FF431
:1054900000710120FCF77EF901224FF44031012018
:1054A000FCF778F9012244F220010020FCF772F9A0
:1054B00000BF80BD80B582B000AF034687ED000A13
:1054C000FB71FB7997ED000A1846FBF739F900BF2D
:1054D0000837BD4680BD80B582B000AF87ED010AB8
:1054E000C7ED000AD7ED000A97ED010AFCF7C8FBEB
:1054F00000BF0837BD4680BD80B485B000AFF860FE
:10550000B9607A603B60FB68A3F127027B681A6090
:10551000BB68C3F133023B681A6000BF1437BD4655
:105520005DF8047B704780B483B000AF78607B681F
:10553000002B01DA012301E04FF0FF3318460C374E
:10554000BD465DF8047B704780B586B000AFF8605B
:10555000B9603B601346FB713B68002B02D03B688F
:1055600000221A80012210210320FCF75FF900239A
:10557000FB75FA7DFB799A421BD20020FFF73FFFB3
:1055800003461946FB7DBA681344CAB21A703B68D9
:10559000002B0AD03B681A88FB7DB9680B441B7846
:1055A0009BB213449AB23B681A80FB7D0133FB75B2
:1055B000DFE7002210210320FCF738F9FB791BB24A
:1055C00018461837BD4680BD80B586B000AFF8607C
:1055D000B9601346FB71012210210320FCF726F964
:1055E0000023FB75FA7DFB799A420BD2FB7DBA68EA
:1055F00013441B789BB21846FFF701FFFB7D013374
:10560000FB75EFE7002210210320FCF70FF9FB796F
:105610001BB218461837BD4680BD80B483B000AFBA
:10562000786039607B6800221A703B681B791A46E3
:105630007B689A603B681A787B685A703B689A78F6
:105640007B68DA703B685A787B689A703B68DA78D6
:105650007B681A7100BF0C37BD465DF8047B70474C
:1056600080B586B000AFF860B9601346FB710023C7
:10567000FB75FA7DFB799A4215D2FB7D132B12D86C
:10568000FB7D1B01BA68D018FA7D13465B001344FA
:105690005B001A46FB6813441946FFF7BEFFFB7D0B
:1056A0000133FB75E5E7FB7D18461837BD4680BD25
:1056B00080B588B000AFF860B9601346FB71002375
:1056C000FB610023BB76BA7EFB799A4247D2002366
:1056D000FB7600237B617B69132B29DCBA7E1346A2
:1056E0005B0013445B001A46FB6813441B791946A0
:1056F0007B691B01BA6813449B68994214D17B698A
:105700001B01BA68D018BA7E13465B0013445B00D5
:105710001A46FB6813441946FFF77FFF0123FB7607
:10572000FB690133FB6103E07B6901337B61D2E7F5
:10573000FB7E83F00103DBB2002B06D07B691B01EB
:10574000BA68134401221A7005E07B691B01BA682C
:10575000134400221A70BB7E0133BB76B3E7FB69AA
:1057600018462037BD4680BD80B5D4B000AF07F5E0
:10577000A873A3F5A67318600023C7F84C319621CF
:105780000120FFF78BFD0346A7F84A31B7F84A31ED
:1057900019460120FFF7BAFD034683F00103DBB28F
:1057A000002B3DD007F5A873A3F5A6731B6814332F
:1057B00001220121184600F051F8D7F84C31002B96
:1057C0001AD107F5A873A3F5A6731B68986907F5A6
:1057D000A873A3F5A6731B681A7D07F10803194681
:1057E000FFF73EFFC7F84C01B7F84A319622194639
:1057F0000120FFF778FDC9E707F5A873A3F5A673A5
:105800001B68986907F5A873A3F5A6731B681A7D32
:1058100007F108031946FFF74BFFC7F84C01B5E73E
:10582000D7F84C31012B09DD07F108031946D7F8E9
:105830004C01FDF7E3F9FDF75FFA04E007F1080317
:105840001846FDF7B5F9B7F84A3119460120FFF7B8
:1058500038FD00BF07F5A877BD4680BD80B582B092
:1058600000AF78600B46FB701346BB70BB78FA78CC
:1058700001217868FDF764FA034618460837BD46EB
:1058800080BD80B582B000AF78607B689B6BAE2234
:105890001A707B689B6B0133C1221A707B689B6B0B
:1058A00002337A6892F840201A707B689B6B03334E
:1058B0007A6892F841201A707B6803F134007B68A3
:1058C000996B7B6893F841300433DBB21A46FFF7DB
:1058D0007BFE034618460837BD4680BD80B483B0C2
:1058E00000AF78603960002318460C37BD465DF87C
:1058F000047B704780B582B000AF78607B68083366
:105900007968184600F066F87B68143379681846A1
:1059100000F06FF87B6830337968184600F078F84B
:105920004FF48270FEF732FA03461A467B689A6398
:105930007B689B6B1A1D7B68DA637B680022DA80C8
:105940007B68DA887B689A807B6800221A607B68B3
:1059500018460837BD4680BD80B584B000AF78607A
:105960000B46FB701346BB707B68DB6BFA781A70D2
:105970007B68DB6B0133BA781A707B68022283F88C
:1059800041207B68162283F840207868FFF779FF72
:105990007868FDF7AFFA0346002B0BD17B6893F8CC
:1059A0004030012B06D17B6893F84130042B01D1A4
:1059B000012300E00023002B06D07B689B6B1B6853
:1059C000FB60FB685BB201E04FF0FF331846103715
:1059D000BD4680BD80B483B000AF786039607B681D
:1059E0003A689A607B6818460C37BD465DF8047BC0
:1059F000704780B483B000AF786039607B683A68E4
:105A00009A617B6818460C37BD465DF8047B704789
:105A100080B483B000AF786039607B683A681A6000
:105A20007B6818460C37BD465DF8047B704780B52F
:105A300082B000AF78607B68002283F841207B68E9
:105A40000E2283F840207868FFF71BFF7868FDF787
:105A500051FA0346002B0CBF01230023DBB2002BBD
:105A600015D07B6893F840300F2B08D17B689A6B78
:105A70007B681A607B6893F841305BB209E07B6811
:105A800093F84030032B02D16FF0010301E04FF097
:105A9000FF3318460837BD4680BD80B582B000AFE1
:105AA00078607B68012283F841207B68DB6B0022F1
:105AB0001A707B680C2283F840207868FFF7E1FEBB
:105AC0007868FDF717FA0346002B0CBF012300236B
:105AD000DBB2002B13D07B6893F840300D2B0BD139
